{
  "_format": "hh-sol-artifact-1",
  "contractName": "NFTMarketplace",
  "sourceName": "contracts/NFTMarketplace.sol",
  "abi": [
    {
      "inputs": [],
      "stateMutability": "nonpayable",
      "type": "constructor"
    },
    {
      "anonymous": false,
      "inputs": [
        {
          "indexed": true,
          "internalType": "address",
          "name": "owner",
          "type": "address"
        },
        {
          "indexed": true,
          "internalType": "address",
          "name": "approved",
          "type": "address"
        },
        {
          "indexed": true,
          "internalType": "uint256",
          "name": "tokenId",
          "type": "uint256"
        }
      ],
      "name": "Approval",
      "type": "event"
    },
    {
      "anonymous": false,
      "inputs": [
        {
          "indexed": true,
          "internalType": "address",
          "name": "owner",
          "type": "address"
        },
        {
          "indexed": true,
          "internalType": "address",
          "name": "operator",
          "type": "address"
        },
        {
          "indexed": false,
          "internalType": "bool",
          "name": "approved",
          "type": "bool"
        }
      ],
      "name": "ApprovalForAll",
      "type": "event"
    },
    {
      "anonymous": false,
      "inputs": [
        {
          "indexed": true,
          "internalType": "uint256",
          "name": "tokenId",
          "type": "uint256"
        },
        {
          "indexed": false,
          "internalType": "address",
          "name": "owner",
          "type": "address"
        },
        {
          "indexed": false,
          "internalType": "address",
          "name": "seller",
          "type": "address"
        },
        {
          "indexed": false,
          "internalType": "uint256",
          "name": "price",
          "type": "uint256"
        },
        {
          "indexed": false,
          "internalType": "uint32",
          "name": "category",
          "type": "uint32"
        },
        {
          "indexed": false,
          "internalType": "bool",
          "name": "currentlyListed",
          "type": "bool"
        }
      ],
      "name": "TokenListedSuccess",
      "type": "event"
    },
    {
      "anonymous": false,
      "inputs": [
        {
          "indexed": true,
          "internalType": "address",
          "name": "from",
          "type": "address"
        },
        {
          "indexed": true,
          "internalType": "address",
          "name": "to",
          "type": "address"
        },
        {
          "indexed": true,
          "internalType": "uint256",
          "name": "tokenId",
          "type": "uint256"
        }
      ],
      "name": "Transfer",
      "type": "event"
    },
    {
      "inputs": [
        {
          "internalType": "address",
          "name": "to",
          "type": "address"
        },
        {
          "internalType": "uint256",
          "name": "tokenId",
          "type": "uint256"
        }
      ],
      "name": "approve",
      "outputs": [],
      "stateMutability": "nonpayable",
      "type": "function"
    },
    {
      "inputs": [
        {
          "internalType": "address",
          "name": "owner",
          "type": "address"
        }
      ],
      "name": "balanceOf",
      "outputs": [
        {
          "internalType": "uint256",
          "name": "",
          "type": "uint256"
        }
      ],
      "stateMutability": "view",
      "type": "function"
    },
    {
      "inputs": [
        {
          "internalType": "string",
          "name": "tokenURI",
          "type": "string"
        },
        {
          "internalType": "uint256",
          "name": "price",
          "type": "uint256"
        },
        {
          "internalType": "uint32",
          "name": "category",
          "type": "uint32"
        }
      ],
      "name": "createToken",
      "outputs": [
        {
          "internalType": "uint256",
          "name": "",
          "type": "uint256"
        }
      ],
      "stateMutability": "payable",
      "type": "function"
    },
    {
      "inputs": [
        {
          "internalType": "uint256",
          "name": "tokenId",
          "type": "uint256"
        }
      ],
      "name": "executeSale",
      "outputs": [],
      "stateMutability": "payable",
      "type": "function"
    },
    {
      "inputs": [],
      "name": "getAllNFTs",
      "outputs": [
        {
          "components": [
            {
              "internalType": "uint256",
              "name": "tokenId",
              "type": "uint256"
            },
            {
              "internalType": "address payable",
              "name": "owner",
              "type": "address"
            },
            {
              "internalType": "address payable",
              "name": "seller",
              "type": "address"
            },
            {
              "internalType": "uint256",
              "name": "price",
              "type": "uint256"
            },
            {
              "internalType": "uint32",
              "name": "category",
              "type": "uint32"
            },
            {
              "internalType": "bool",
              "name": "currentlyListed",
              "type": "bool"
            }
          ],
          "internalType": "struct NFTMarketplace.ListedToken[]",
          "name": "",
          "type": "tuple[]"
        }
      ],
      "stateMutability": "view",
      "type": "function"
    },
    {
      "inputs": [
        {
          "internalType": "uint256",
          "name": "tokenId",
          "type": "uint256"
        }
      ],
      "name": "getApproved",
      "outputs": [
        {
          "internalType": "address",
          "name": "",
          "type": "address"
        }
      ],
      "stateMutability": "view",
      "type": "function"
    },
    {
      "inputs": [
        {
          "internalType": "uint32",
          "name": "categoryNum",
          "type": "uint32"
        }
      ],
      "name": "getCategoryNFTs",
      "outputs": [
        {
          "components": [
            {
              "internalType": "uint256",
              "name": "tokenId",
              "type": "uint256"
            },
            {
              "internalType": "address payable",
              "name": "owner",
              "type": "address"
            },
            {
              "internalType": "address payable",
              "name": "seller",
              "type": "address"
            },
            {
              "internalType": "uint256",
              "name": "price",
              "type": "uint256"
            },
            {
              "internalType": "uint32",
              "name": "category",
              "type": "uint32"
            },
            {
              "internalType": "bool",
              "name": "currentlyListed",
              "type": "bool"
            }
          ],
          "internalType": "struct NFTMarketplace.ListedToken[]",
          "name": "",
          "type": "tuple[]"
        }
      ],
      "stateMutability": "view",
      "type": "function"
    },
    {
      "inputs": [],
      "name": "getCurrentToken",
      "outputs": [
        {
          "internalType": "uint256",
          "name": "",
          "type": "uint256"
        }
      ],
      "stateMutability": "view",
      "type": "function"
    },
    {
      "inputs": [],
      "name": "getListPrice",
      "outputs": [
        {
          "internalType": "uint256",
          "name": "",
          "type": "uint256"
        }
      ],
      "stateMutability": "view",
      "type": "function"
    },
    {
      "inputs": [],
      "name": "getMyNFTs",
      "outputs": [
        {
          "components": [
            {
              "internalType": "uint256",
              "name": "tokenId",
              "type": "uint256"
            },
            {
              "internalType": "address payable",
              "name": "owner",
              "type": "address"
            },
            {
              "internalType": "address payable",
              "name": "seller",
              "type": "address"
            },
            {
              "internalType": "uint256",
              "name": "price",
              "type": "uint256"
            },
            {
              "internalType": "uint32",
              "name": "category",
              "type": "uint32"
            },
            {
              "internalType": "bool",
              "name": "currentlyListed",
              "type": "bool"
            }
          ],
          "internalType": "struct NFTMarketplace.ListedToken[]",
          "name": "",
          "type": "tuple[]"
        }
      ],
      "stateMutability": "view",
      "type": "function"
    },
    {
      "inputs": [],
      "name": "getUnsoldNFTs",
      "outputs": [
        {
          "components": [
            {
              "internalType": "uint256",
              "name": "tokenId",
              "type": "uint256"
            },
            {
              "internalType": "address payable",
              "name": "owner",
              "type": "address"
            },
            {
              "internalType": "address payable",
              "name": "seller",
              "type": "address"
            },
            {
              "internalType": "uint256",
              "name": "price",
              "type": "uint256"
            },
            {
              "internalType": "uint32",
              "name": "category",
              "type": "uint32"
            },
            {
              "internalType": "bool",
              "name": "currentlyListed",
              "type": "bool"
            }
          ],
          "internalType": "struct NFTMarketplace.ListedToken[]",
          "name": "",
          "type": "tuple[]"
        }
      ],
      "stateMutability": "view",
      "type": "function"
    },
    {
      "inputs": [
        {
          "internalType": "address",
          "name": "owner",
          "type": "address"
        },
        {
          "internalType": "address",
          "name": "operator",
          "type": "address"
        }
      ],
      "name": "isApprovedForAll",
      "outputs": [
        {
          "internalType": "bool",
          "name": "",
          "type": "bool"
        }
      ],
      "stateMutability": "view",
      "type": "function"
    },
    {
      "inputs": [],
      "name": "name",
      "outputs": [
        {
          "internalType": "string",
          "name": "",
          "type": "string"
        }
      ],
      "stateMutability": "view",
      "type": "function"
    },
    {
      "inputs": [
        {
          "internalType": "uint256",
          "name": "tokenId",
          "type": "uint256"
        }
      ],
      "name": "ownerOf",
      "outputs": [
        {
          "internalType": "address",
          "name": "",
          "type": "address"
        }
      ],
      "stateMutability": "view",
      "type": "function"
    },
    {
      "inputs": [
        {
          "internalType": "address",
          "name": "from",
          "type": "address"
        },
        {
          "internalType": "address",
          "name": "to",
          "type": "address"
        },
        {
          "internalType": "uint256",
          "name": "tokenId",
          "type": "uint256"
        }
      ],
      "name": "safeTransferFrom",
      "outputs": [],
      "stateMutability": "nonpayable",
      "type": "function"
    },
    {
      "inputs": [
        {
          "internalType": "address",
          "name": "from",
          "type": "address"
        },
        {
          "internalType": "address",
          "name": "to",
          "type": "address"
        },
        {
          "internalType": "uint256",
          "name": "tokenId",
          "type": "uint256"
        },
        {
          "internalType": "bytes",
          "name": "data",
          "type": "bytes"
        }
      ],
      "name": "safeTransferFrom",
      "outputs": [],
      "stateMutability": "nonpayable",
      "type": "function"
    },
    {
      "inputs": [
        {
          "internalType": "address",
          "name": "operator",
          "type": "address"
        },
        {
          "internalType": "bool",
          "name": "approved",
          "type": "bool"
        }
      ],
      "name": "setApprovalForAll",
      "outputs": [],
      "stateMutability": "nonpayable",
      "type": "function"
    },
    {
      "inputs": [
        {
          "internalType": "bytes4",
          "name": "interfaceId",
          "type": "bytes4"
        }
      ],
      "name": "supportsInterface",
      "outputs": [
        {
          "internalType": "bool",
          "name": "",
          "type": "bool"
        }
      ],
      "stateMutability": "view",
      "type": "function"
    },
    {
      "inputs": [],
      "name": "symbol",
      "outputs": [
        {
          "internalType": "string",
          "name": "",
          "type": "string"
        }
      ],
      "stateMutability": "view",
      "type": "function"
    },
    {
      "inputs": [
        {
          "internalType": "uint256",
          "name": "tokenId",
          "type": "uint256"
        }
      ],
      "name": "tokenURI",
      "outputs": [
        {
          "internalType": "string",
          "name": "",
          "type": "string"
        }
      ],
      "stateMutability": "view",
      "type": "function"
    },
    {
      "inputs": [
        {
          "internalType": "address",
          "name": "from",
          "type": "address"
        },
        {
          "internalType": "address",
          "name": "to",
          "type": "address"
        },
        {
          "internalType": "uint256",
          "name": "tokenId",
          "type": "uint256"
        }
      ],
      "name": "transferFrom",
      "outputs": [],
      "stateMutability": "nonpayable",
      "type": "function"
    },
    {
      "inputs": [
        {
          "internalType": "uint256",
          "name": "_listPrice",
          "type": "uint256"
        }
      ],
      "name": "updateListPrice",
      "outputs": [],
      "stateMutability": "payable",
      "type": "function"
    }
  ],
  "bytecode": "0x6080604052662386f26fc10000600a553480156200001c57600080fd5b50604080518082018252600e81526d4e46544d61726b6574706c61636560901b6020808301918252835180850190945260048452634e46544d60e01b9084015281519192916200006f91600091620000a0565b50805162000085906001906020840190620000a0565b5050600980546001600160a01b031916331790555062000183565b828054620000ae9062000146565b90600052602060002090601f016020900481019282620000d257600085556200011d565b82601f10620000ed57805160ff19168380011785556200011d565b828001600101855582156200011d579182015b828111156200011d57825182559160200191906001019062000100565b506200012b9291506200012f565b5090565b5b808211156200012b576000815560010162000130565b600181811c908216806200015b57607f821691505b602082108114156200017d57634e487b7160e01b600052602260045260246000fd5b50919050565b6123c280620001936000396000f3fe6080604052600436106101355760003560e01c806391906675116100ab578063b88d4fde1161006f578063b88d4fde1461033c578063c322579c1461035c578063c87b56dd1461036f578063e0391b091461038f578063e985e9c5146103a4578063ef2d1746146103ed57600080fd5b806391906675146102cc57806395d89b41146102e15780639b1225c4146102f6578063a22cb46514610309578063b39aff491461032957600080fd5b806342842e0e116100fd57806342842e0e1461020b578063629cb2e41461022b5780636352211e1461024d57806368f1945f1461026d57806370a082311461028c5780637889e087146102ac57600080fd5b806301ffc9a71461013a57806306fdde031461016f578063081812fc14610191578063095ea7b3146101c957806323b872dd146101eb575b600080fd5b34801561014657600080fd5b5061015a610155366004611fb2565b610402565b60405190151581526020015b60405180910390f35b34801561017b57600080fd5b50610184610454565b60405161016691906121a8565b34801561019d57600080fd5b506101b16101ac366004612052565b6104e6565b6040516001600160a01b039091168152602001610166565b3480156101d557600080fd5b506101e96101e4366004611f89565b61050d565b005b3480156101f757600080fd5b506101e9610206366004611e9b565b610628565b34801561021757600080fd5b506101e9610226366004611e9b565b610659565b34801561023757600080fd5b50610240610674565b604051610166919061211c565b34801561025957600080fd5b506101b1610268366004612052565b6108cb565b34801561027957600080fd5b50600a545b604051908152602001610166565b34801561029857600080fd5b5061027e6102a7366004611e4f565b61092b565b3480156102b857600080fd5b506102406102c736600461206a565b6109b1565b3480156102d857600080fd5b50610240610ba5565b3480156102ed57600080fd5b50610184610d96565b6101e9610304366004612052565b610da5565b34801561031557600080fd5b506101e9610324366004611f4f565b610ecd565b61027e610337366004611fea565b610edc565b34801561034857600080fd5b506101e9610357366004611ed6565b611113565b6101e961036a366004612052565b611145565b34801561037b57600080fd5b5061018461038a366004612052565b6111b0565b34801561039b57600080fd5b506102406112c1565b3480156103b057600080fd5b5061015a6103bf366004611e69565b6001600160a01b03918216600090815260056020908152604080832093909416825291909152205460ff1690565b3480156103f957600080fd5b5061027e61141b565b60006001600160e01b031982166380ac58cd60e01b148061043357506001600160e01b03198216635b5e139f60e01b145b8061044e57506301ffc9a760e01b6001600160e01b03198316145b92915050565b606060008054610463906122ca565b80601f016020809104026020016040519081016040528092919081815260200182805461048f906122ca565b80156104dc5780601f106104b1576101008083540402835291602001916104dc565b820191906000526020600020905b8154815290600101906020018083116104bf57829003601f168201915b5050505050905090565b60006104f18261142b565b506000908152600460205260409020546001600160a01b031690565b6000610518826108cb565b9050806001600160a01b0316836001600160a01b0316141561058b5760405162461bcd60e51b815260206004820152602160248201527f4552433732313a20617070726f76616c20746f2063757272656e74206f776e656044820152603960f91b60648201526084015b60405180910390fd5b336001600160a01b03821614806105a757506105a781336103bf565b6106195760405162461bcd60e51b815260206004820152603e60248201527f4552433732313a20617070726f76652063616c6c6572206973206e6f7420746f60448201527f6b656e206f776e6572206e6f7220617070726f76656420666f7220616c6c00006064820152608401610582565b610623838361148d565b505050565b61063233826114fb565b61064e5760405162461bcd60e51b81526004016105829061220d565b610623838383611579565b61062383838360405180602001604052806000815250611113565b6060600061068160075490565b905060008080805b848110156107195733600b60006106a184600161225b565b81526020810191909152604001600020600101546001600160a01b031614806106f4575033600b60006106d584600161225b565b81526020810191909152604001600020600201546001600160a01b0316145b156107075761070460018561225b565b93505b8061071181612305565b915050610689565b5060008367ffffffffffffffff81111561074357634e487b7160e01b600052604160045260246000fd5b60405190808252806020026020018201604052801561077c57816020015b610769611cdb565b8152602001906001900390816107615790505b50905060005b858110156108c15733600b600061079a84600161225b565b81526020810191909152604001600020600101546001600160a01b031614806107ed575033600b60006107ce84600161225b565b81526020810191909152604001600020600201546001600160a01b0316145b156108af576107fd81600161225b565b6000818152600b6020908152604091829020825160c0810184528154815260018201546001600160a01b039081169382019390935260028201549092169282019290925260038201546060820152600482015463ffffffff81166080830152640100000000900460ff16151560a08201528451929550909184908790811061089557634e487b7160e01b600052603260045260246000fd5b60209081029190910101526108ab60018661225b565b9450505b806108b981612305565b915050610782565b5095945050505050565b6000818152600260205260408120546001600160a01b03168061044e5760405162461bcd60e51b8152602060048201526018602482015277115490cdcc8c4e881a5b9d985b1a59081d1bdad95b88125160421b6044820152606401610582565b60006001600160a01b0382166109955760405162461bcd60e51b815260206004820152602960248201527f4552433732313a2061646472657373207a65726f206973206e6f7420612076616044820152683634b21037bbb732b960b91b6064820152608401610582565b506001600160a01b031660009081526003602052604090205490565b606060006109be60075490565b905060008080805b84811015610a245763ffffffff8716600b60006109e484600161225b565b815260208101919091526040016000206004015463ffffffff161415610a1257610a0f60018561225b565b93505b80610a1c81612305565b9150506109c6565b5060008367ffffffffffffffff811115610a4e57634e487b7160e01b600052604160045260246000fd5b604051908082528060200260200182016040528015610a8757816020015b610a74611cdb565b815260200190600190039081610a6c5790505b50905060005b85811015610b9a5763ffffffff8816600b6000610aab84600161225b565b815260208101919091526040016000206004015463ffffffff161415610b8857610ad681600161225b565b6000818152600b6020908152604091829020825160c0810184528154815260018201546001600160a01b039081169382019390935260028201549092169282019290925260038201546060820152600482015463ffffffff81166080830152640100000000900460ff16151560a082015284519295509091849087908110610b6e57634e487b7160e01b600052603260045260246000fd5b6020908102919091010152610b8460018661225b565b9450505b80610b9281612305565b915050610a8d565b509695505050505050565b60606000610bb260075490565b905060008080805b84811015610c1c57600b6000610bd183600161225b565b815260200190815260200160002060040160049054906101000a900460ff161515600115151415610c0a57610c0760018561225b565b93505b80610c1481612305565b915050610bba565b5060008367ffffffffffffffff811115610c4657634e487b7160e01b600052604160045260246000fd5b604051908082528060200260200182016040528015610c7f57816020015b610c6c611cdb565b815260200190600190039081610c645790505b50905060005b858110156108c157600b6000610c9c83600161225b565b815260200190815260200160002060040160049054906101000a900460ff161515600115151415610d8457610cd281600161225b565b6000818152600b6020908152604091829020825160c0810184528154815260018201546001600160a01b039081169382019390935260028201549092169282019290925260038201546060820152600482015463ffffffff81166080830152640100000000900460ff16151560a082015284519295509091849087908110610d6a57634e487b7160e01b600052603260045260246000fd5b6020908102919091010152610d8060018661225b565b9450505b80610d8e81612305565b915050610c85565b606060018054610463906122ca565b6000818152600b6020526040902060038101546002909101546001600160a01b0316348214610e3e576040805162461bcd60e51b81526020600482015260248101919091527f506c65617365207375626d6974207468652061736b696e67207072696365206960448201527f6e206f7264657220746f20636f6d706c657465207468652070757263686173656064820152608401610582565b6000838152600b6020526040902060048101805464ff000000001916905560010180546001600160a01b03191633179055610e7d600880546001019055565b610e88303385611579565b610e92308461050d565b6040516001600160a01b038216903480156108fc02916000818181858888f19350505050158015610ec7573d6000803e3d6000fd5b50505050565b610ed8338383611715565b5050565b6000600a543414610f285760405162461bcd60e51b815260206004820152601660248201527553656e642074686520636f727265637420707269636560501b6044820152606401610582565b66b1a2bc2ec500008311610f935760405162461bcd60e51b815260206004820152602c60248201527f4d616b652073757265207468652070726963652069736e2774206c657373207460448201526b0d0c2dc40605c606a408aa8960a31b6064820152608401610582565b610fa1600780546001019055565b6000610fac60075490565b9050610fb833826117e4565b610fc281866117fe565b6040805160c081018252828152306020808301918252338385019081526060840189815263ffffffff808a1660808701908152600160a0880181815260008b8152600b90975289872098518955965190880180546001600160a01b039283166001600160a01b0319918216179091559451600289018054918316919096161790945591516003870155905160049095018054945115156401000000000264ffffffffff19909516959091169490941792909217909255600954600a54935191169280156108fc0292909190818181858888f193505050501580156110aa573d6000803e3d6000fd5b506110b6333083611579565b6040805130815233602082015290810185905263ffffffff841660608201526001608082015281907f6cefb4141c64fb4d71da23730663506f9f07f8b2e67df7a9b553353232baa73e9060a00160405180910390a2949350505050565b61111d33836114fb565b6111395760405162461bcd60e51b81526004016105829061220d565b610ec784848484611898565b6009546001600160a01b031633146111ab5760405162461bcd60e51b815260206004820152602360248201527f4f6e6c79206f776e65722063616e20757064617465206c697374696e6720707260448201526269636560e81b6064820152608401610582565b600a55565b60606111bb8261142b565b600082815260066020526040812080546111d4906122ca565b80601f0160208091040260200160405190810160405280929190818152602001828054611200906122ca565b801561124d5780601f106112225761010080835404028352916020019161124d565b820191906000526020600020905b81548152906001019060200180831161123057829003601f168201915b50505050509050600061126b60408051602081019091526000815290565b905080516000141561127e575092915050565b8151156112b05780826040516020016112989291906120b0565b60405160208183030381529060405292505050919050565b6112b9846118cb565b949350505050565b606060006112ce60075490565b905060008167ffffffffffffffff8111156112f957634e487b7160e01b600052604160045260246000fd5b60405190808252806020026020018201604052801561133257816020015b61131f611cdb565b8152602001906001900390816113175790505b509050600080805b848110156114115761134d81600161225b565b6000818152600b6020908152604091829020825160c0810184528154815260018201546001600160a01b039081169382019390935260028201549092169282019290925260038201546060820152600482015463ffffffff81166080830152640100000000900460ff16151560a0820152865192945090918690869081106113e557634e487b7160e01b600052603260045260246000fd5b60209081029190910101526113fb60018561225b565b935050808061140990612305565b91505061133a565b5091949350505050565b600061142660075490565b905090565b6000818152600260205260409020546001600160a01b031661148a5760405162461bcd60e51b8152602060048201526018602482015277115490cdcc8c4e881a5b9d985b1a59081d1bdad95b88125160421b6044820152606401610582565b50565b600081815260046020526040902080546001600160a01b0319166001600160a01b03841690811790915581906114c2826108cb565b6001600160a01b03167f8c5be1e5ebec7d5bd14f71427d1e84f3dd0314c0f7b2291e5b200ac8c7c3b92560405160405180910390a45050565b600080611507836108cb565b9050806001600160a01b0316846001600160a01b0316148061154e57506001600160a01b0380821660009081526005602090815260408083209388168352929052205460ff165b806112b95750836001600160a01b0316611567846104e6565b6001600160a01b031614949350505050565b826001600160a01b031661158c826108cb565b6001600160a01b0316146115f05760405162461bcd60e51b815260206004820152602560248201527f4552433732313a207472616e736665722066726f6d20696e636f72726563742060448201526437bbb732b960d91b6064820152608401610582565b6001600160a01b0382166116525760405162461bcd60e51b8152602060048201526024808201527f4552433732313a207472616e7366657220746f20746865207a65726f206164646044820152637265737360e01b6064820152608401610582565b61165d60008261148d565b6001600160a01b0383166000908152600360205260408120805460019290611686908490612287565b90915550506001600160a01b03821660009081526003602052604081208054600192906116b490849061225b565b909155505060008181526002602052604080822080546001600160a01b0319166001600160a01b0386811691821790925591518493918716917fddf252ad1be2c89b69c2b068fc378daa952ba7f163c4a11628f55a4df523b3ef91a4505050565b816001600160a01b0316836001600160a01b031614156117775760405162461bcd60e51b815260206004820152601960248201527f4552433732313a20617070726f766520746f2063616c6c6572000000000000006044820152606401610582565b6001600160a01b03838116600081815260056020908152604080832094871680845294825291829020805460ff191686151590811790915591519182527f17307eab39ab6107e8899845ad3d59bd9653f200f220920489ca2b5937696c31910160405180910390a3505050565b610ed882826040518060200160405280600081525061193f565b6000828152600260205260409020546001600160a01b03166118795760405162461bcd60e51b815260206004820152602e60248201527f45524337323155524953746f726167653a2055524920736574206f66206e6f6e60448201526d32bc34b9ba32b73a103a37b5b2b760911b6064820152608401610582565b6000828152600660209081526040909120825161062392840190611d10565b6118a3848484611579565b6118af84848484611972565b610ec75760405162461bcd60e51b8152600401610582906121bb565b60606118d68261142b565b60006118ed60408051602081019091526000815290565b9050600081511161190d5760405180602001604052806000815250611938565b8061191784611a7f565b6040516020016119289291906120b0565b6040516020818303038152906040525b9392505050565b6119498383611b99565b6119566000848484611972565b6106235760405162461bcd60e51b8152600401610582906121bb565b60006001600160a01b0384163b15611a7457604051630a85bd0160e11b81526001600160a01b0385169063150b7a02906119b69033908990889088906004016120df565b602060405180830381600087803b1580156119d057600080fd5b505af1925050508015611a00575060408051601f3d908101601f191682019092526119fd91810190611fce565b60015b611a5a573d808015611a2e576040519150601f19603f3d011682016040523d82523d6000602084013e611a33565b606091505b508051611a525760405162461bcd60e51b8152600401610582906121bb565b805181602001fd5b6001600160e01b031916630a85bd0160e11b1490506112b9565b506001949350505050565b606081611aa35750506040805180820190915260018152600360fc1b602082015290565b8160005b8115611acd5780611ab781612305565b9150611ac69050600a83612273565b9150611aa7565b60008167ffffffffffffffff811115611af657634e487b7160e01b600052604160045260246000fd5b6040519080825280601f01601f191660200182016040528015611b20576020820181803683370190505b5090505b84156112b957611b35600183612287565b9150611b42600a86612320565b611b4d90603061225b565b60f81b818381518110611b7057634e487b7160e01b600052603260045260246000fd5b60200101906001600160f81b031916908160001a905350611b92600a86612273565b9450611b24565b6001600160a01b038216611bef5760405162461bcd60e51b815260206004820181905260248201527f4552433732313a206d696e7420746f20746865207a65726f20616464726573736044820152606401610582565b6000818152600260205260409020546001600160a01b031615611c545760405162461bcd60e51b815260206004820152601c60248201527f4552433732313a20746f6b656e20616c7265616479206d696e746564000000006044820152606401610582565b6001600160a01b0382166000908152600360205260408120805460019290611c7d90849061225b565b909155505060008181526002602052604080822080546001600160a01b0319166001600160a01b03861690811790915590518392907fddf252ad1be2c89b69c2b068fc378daa952ba7f163c4a11628f55a4df523b3ef908290a45050565b6040805160c081018252600080825260208201819052918101829052606081018290526080810182905260a081019190915290565b828054611d1c906122ca565b90600052602060002090601f016020900481019282611d3e5760008555611d84565b82601f10611d5757805160ff1916838001178555611d84565b82800160010185558215611d84579182015b82811115611d84578251825591602001919060010190611d69565b50611d90929150611d94565b5090565b5b80821115611d905760008155600101611d95565b600067ffffffffffffffff80841115611dc457611dc4612360565b604051601f8501601f19908116603f01168101908282118183101715611dec57611dec612360565b81604052809350858152868686011115611e0557600080fd5b858560208301376000602087830101525050509392505050565b80356001600160a01b0381168114611e3657600080fd5b919050565b803563ffffffff81168114611e3657600080fd5b600060208284031215611e60578081fd5b61193882611e1f565b60008060408385031215611e7b578081fd5b611e8483611e1f565b9150611e9260208401611e1f565b90509250929050565b600080600060608486031215611eaf578081fd5b611eb884611e1f565b9250611ec660208501611e1f565b9150604084013590509250925092565b60008060008060808587031215611eeb578081fd5b611ef485611e1f565b9350611f0260208601611e1f565b925060408501359150606085013567ffffffffffffffff811115611f24578182fd5b8501601f81018713611f34578182fd5b611f4387823560208401611da9565b91505092959194509250565b60008060408385031215611f61578182fd5b611f6a83611e1f565b915060208301358015158114611f7e578182fd5b809150509250929050565b60008060408385031215611f9b578182fd5b611fa483611e1f565b946020939093013593505050565b600060208284031215611fc3578081fd5b813561193881612376565b600060208284031215611fdf578081fd5b815161193881612376565b600080600060608486031215611ffe578283fd5b833567ffffffffffffffff811115612014578384fd5b8401601f81018613612024578384fd5b61203386823560208401611da9565b9350506020840135915061204960408501611e3b565b90509250925092565b600060208284031215612063578081fd5b5035919050565b60006020828403121561207b578081fd5b61193882611e3b565b6000815180845261209c81602086016020860161229e565b601f01601f19169290920160200192915050565b600083516120c281846020880161229e565b8351908301906120d681836020880161229e565b01949350505050565b6001600160a01b038581168252841660208201526040810183905260806060820181905260009061211290830184612084565b9695505050505050565b602080825282518282018190526000919060409081850190868401855b8281101561219b57815180518552868101516001600160a01b03908116888701528682015116868601526060808201519086015260808082015163ffffffff169086015260a09081015115159085015260c09093019290850190600101612139565b5091979650505050505050565b6020815260006119386020830184612084565b60208082526032908201527f4552433732313a207472616e7366657220746f206e6f6e20455243373231526560408201527131b2b4bb32b91034b6b83632b6b2b73a32b960711b606082015260800190565b6020808252602e908201527f4552433732313a2063616c6c6572206973206e6f7420746f6b656e206f776e6560408201526d1c881b9bdc88185c1c1c9bdd995960921b606082015260800190565b6000821982111561226e5761226e612334565b500190565b6000826122825761228261234a565b500490565b60008282101561229957612299612334565b500390565b60005b838110156122b95781810151838201526020016122a1565b83811115610ec75750506000910152565b600181811c908216806122de57607f821691505b602082108114156122ff57634e487b7160e01b600052602260045260246000fd5b50919050565b600060001982141561231957612319612334565b5060010190565b60008261232f5761232f61234a565b500690565b634e487b7160e01b600052601160045260246000fd5b634e487b7160e01b600052601260045260246000fd5b634e487b7160e01b600052604160045260246000fd5b6001600160e01b03198116811461148a57600080fdfea26469706673582212200426c225ea93397070789008271b0b1494b1e516161aed54c5d9c32982b96e2b64736f6c63430008040033",
  "linkReferences": {},
  "deployedLinkReferences": {}
}