{
  "_format": "hh-sol-artifact-1",
  "contractName": "NFTMarketplace",
  "sourceName": "contracts/NFTMarketplace.sol",
  "abi": [
    {
      "inputs": [],
      "stateMutability": "nonpayable",
      "type": "constructor"
    },
    {
      "anonymous": false,
      "inputs": [
        {
          "indexed": true,
          "internalType": "address",
          "name": "owner",
          "type": "address"
        },
        {
          "indexed": true,
          "internalType": "address",
          "name": "approved",
          "type": "address"
        },
        {
          "indexed": true,
          "internalType": "uint256",
          "name": "tokenId",
          "type": "uint256"
        }
      ],
      "name": "Approval",
      "type": "event"
    },
    {
      "anonymous": false,
      "inputs": [
        {
          "indexed": true,
          "internalType": "address",
          "name": "owner",
          "type": "address"
        },
        {
          "indexed": true,
          "internalType": "address",
          "name": "operator",
          "type": "address"
        },
        {
          "indexed": false,
          "internalType": "bool",
          "name": "approved",
          "type": "bool"
        }
      ],
      "name": "ApprovalForAll",
      "type": "event"
    },
    {
      "anonymous": false,
      "inputs": [
        {
          "indexed": true,
          "internalType": "uint256",
          "name": "tokenId",
          "type": "uint256"
        },
        {
          "indexed": false,
          "internalType": "address",
          "name": "owner",
          "type": "address"
        },
        {
          "indexed": false,
          "internalType": "address",
          "name": "seller",
          "type": "address"
        },
        {
          "indexed": false,
          "internalType": "uint256",
          "name": "price",
          "type": "uint256"
        },
        {
          "indexed": false,
          "internalType": "uint32",
          "name": "category",
          "type": "uint32"
        },
        {
          "indexed": false,
          "internalType": "bool",
          "name": "currentlyListed",
          "type": "bool"
        }
      ],
      "name": "TokenListedSuccess",
      "type": "event"
    },
    {
      "anonymous": false,
      "inputs": [
        {
          "indexed": true,
          "internalType": "address",
          "name": "from",
          "type": "address"
        },
        {
          "indexed": true,
          "internalType": "address",
          "name": "to",
          "type": "address"
        },
        {
          "indexed": true,
          "internalType": "uint256",
          "name": "tokenId",
          "type": "uint256"
        }
      ],
      "name": "Transfer",
      "type": "event"
    },
    {
      "inputs": [
        {
          "internalType": "uint256",
          "name": "tokenId",
          "type": "uint256"
        }
      ],
      "name": "Unlist",
      "outputs": [],
      "stateMutability": "nonpayable",
      "type": "function"
    },
    {
      "inputs": [
        {
          "internalType": "address",
          "name": "to",
          "type": "address"
        },
        {
          "internalType": "uint256",
          "name": "tokenId",
          "type": "uint256"
        }
      ],
      "name": "approve",
      "outputs": [],
      "stateMutability": "nonpayable",
      "type": "function"
    },
    {
      "inputs": [
        {
          "internalType": "address",
          "name": "owner",
          "type": "address"
        }
      ],
      "name": "balanceOf",
      "outputs": [
        {
          "internalType": "uint256",
          "name": "",
          "type": "uint256"
        }
      ],
      "stateMutability": "view",
      "type": "function"
    },
    {
      "inputs": [
        {
          "internalType": "string",
          "name": "tokenURI",
          "type": "string"
        },
        {
          "internalType": "uint256",
          "name": "price",
          "type": "uint256"
        },
        {
          "internalType": "uint32",
          "name": "category",
          "type": "uint32"
        }
      ],
      "name": "createToken",
      "outputs": [
        {
          "internalType": "uint256",
          "name": "",
          "type": "uint256"
        }
      ],
      "stateMutability": "payable",
      "type": "function"
    },
    {
      "inputs": [
        {
          "internalType": "uint256",
          "name": "tokenId",
          "type": "uint256"
        }
      ],
      "name": "executeSale",
      "outputs": [],
      "stateMutability": "payable",
      "type": "function"
    },
    {
      "inputs": [],
      "name": "getAllNFTs",
      "outputs": [
        {
          "components": [
            {
              "internalType": "uint256",
              "name": "tokenId",
              "type": "uint256"
            },
            {
              "internalType": "address payable",
              "name": "owner",
              "type": "address"
            },
            {
              "internalType": "address payable",
              "name": "seller",
              "type": "address"
            },
            {
              "internalType": "uint256",
              "name": "price",
              "type": "uint256"
            },
            {
              "internalType": "uint32",
              "name": "category",
              "type": "uint32"
            },
            {
              "internalType": "bool",
              "name": "currentlyListed",
              "type": "bool"
            }
          ],
          "internalType": "struct NFTMarketplace.ListedToken[]",
          "name": "",
          "type": "tuple[]"
        }
      ],
      "stateMutability": "view",
      "type": "function"
    },
    {
      "inputs": [
        {
          "internalType": "uint256",
          "name": "tokenId",
          "type": "uint256"
        }
      ],
      "name": "getApproved",
      "outputs": [
        {
          "internalType": "address",
          "name": "",
          "type": "address"
        }
      ],
      "stateMutability": "view",
      "type": "function"
    },
    {
      "inputs": [
        {
          "internalType": "uint32",
          "name": "categoryNum",
          "type": "uint32"
        }
      ],
      "name": "getCategoryNFTs",
      "outputs": [
        {
          "components": [
            {
              "internalType": "uint256",
              "name": "tokenId",
              "type": "uint256"
            },
            {
              "internalType": "address payable",
              "name": "owner",
              "type": "address"
            },
            {
              "internalType": "address payable",
              "name": "seller",
              "type": "address"
            },
            {
              "internalType": "uint256",
              "name": "price",
              "type": "uint256"
            },
            {
              "internalType": "uint32",
              "name": "category",
              "type": "uint32"
            },
            {
              "internalType": "bool",
              "name": "currentlyListed",
              "type": "bool"
            }
          ],
          "internalType": "struct NFTMarketplace.ListedToken[]",
          "name": "",
          "type": "tuple[]"
        }
      ],
      "stateMutability": "view",
      "type": "function"
    },
    {
      "inputs": [],
      "name": "getCurrentToken",
      "outputs": [
        {
          "internalType": "uint256",
          "name": "",
          "type": "uint256"
        }
      ],
      "stateMutability": "view",
      "type": "function"
    },
    {
      "inputs": [],
      "name": "getListPrice",
      "outputs": [
        {
          "internalType": "uint256",
          "name": "",
          "type": "uint256"
        }
      ],
      "stateMutability": "view",
      "type": "function"
    },
    {
      "inputs": [
        {
          "internalType": "uint256",
          "name": "T_ID",
          "type": "uint256"
        }
      ],
      "name": "getMarketProductDetails",
      "outputs": [
        {
          "components": [
            {
              "internalType": "uint256",
              "name": "tokenId",
              "type": "uint256"
            },
            {
              "internalType": "address payable",
              "name": "owner",
              "type": "address"
            },
            {
              "internalType": "address payable",
              "name": "seller",
              "type": "address"
            },
            {
              "internalType": "uint256",
              "name": "price",
              "type": "uint256"
            },
            {
              "internalType": "uint32",
              "name": "category",
              "type": "uint32"
            },
            {
              "internalType": "bool",
              "name": "currentlyListed",
              "type": "bool"
            }
          ],
          "internalType": "struct NFTMarketplace.ListedToken[]",
          "name": "",
          "type": "tuple[]"
        }
      ],
      "stateMutability": "view",
      "type": "function"
    },
    {
      "inputs": [],
      "name": "getMyNFTs",
      "outputs": [
        {
          "components": [
            {
              "internalType": "uint256",
              "name": "tokenId",
              "type": "uint256"
            },
            {
              "internalType": "address payable",
              "name": "owner",
              "type": "address"
            },
            {
              "internalType": "address payable",
              "name": "seller",
              "type": "address"
            },
            {
              "internalType": "uint256",
              "name": "price",
              "type": "uint256"
            },
            {
              "internalType": "uint32",
              "name": "category",
              "type": "uint32"
            },
            {
              "internalType": "bool",
              "name": "currentlyListed",
              "type": "bool"
            }
          ],
          "internalType": "struct NFTMarketplace.ListedToken[]",
          "name": "",
          "type": "tuple[]"
        }
      ],
      "stateMutability": "view",
      "type": "function"
    },
    {
      "inputs": [],
      "name": "getUnsoldNFTs",
      "outputs": [
        {
          "components": [
            {
              "internalType": "uint256",
              "name": "tokenId",
              "type": "uint256"
            },
            {
              "internalType": "address payable",
              "name": "owner",
              "type": "address"
            },
            {
              "internalType": "address payable",
              "name": "seller",
              "type": "address"
            },
            {
              "internalType": "uint256",
              "name": "price",
              "type": "uint256"
            },
            {
              "internalType": "uint32",
              "name": "category",
              "type": "uint32"
            },
            {
              "internalType": "bool",
              "name": "currentlyListed",
              "type": "bool"
            }
          ],
          "internalType": "struct NFTMarketplace.ListedToken[]",
          "name": "",
          "type": "tuple[]"
        }
      ],
      "stateMutability": "view",
      "type": "function"
    },
    {
      "inputs": [
        {
          "internalType": "address",
          "name": "owner",
          "type": "address"
        },
        {
          "internalType": "address",
          "name": "operator",
          "type": "address"
        }
      ],
      "name": "isApprovedForAll",
      "outputs": [
        {
          "internalType": "bool",
          "name": "",
          "type": "bool"
        }
      ],
      "stateMutability": "view",
      "type": "function"
    },
    {
      "inputs": [],
      "name": "name",
      "outputs": [
        {
          "internalType": "string",
          "name": "",
          "type": "string"
        }
      ],
      "stateMutability": "view",
      "type": "function"
    },
    {
      "inputs": [
        {
          "internalType": "uint256",
          "name": "tokenId",
          "type": "uint256"
        }
      ],
      "name": "ownerOf",
      "outputs": [
        {
          "internalType": "address",
          "name": "",
          "type": "address"
        }
      ],
      "stateMutability": "view",
      "type": "function"
    },
    {
      "inputs": [
        {
          "internalType": "address",
          "name": "from",
          "type": "address"
        },
        {
          "internalType": "address",
          "name": "to",
          "type": "address"
        },
        {
          "internalType": "uint256",
          "name": "tokenId",
          "type": "uint256"
        }
      ],
      "name": "safeTransferFrom",
      "outputs": [],
      "stateMutability": "nonpayable",
      "type": "function"
    },
    {
      "inputs": [
        {
          "internalType": "address",
          "name": "from",
          "type": "address"
        },
        {
          "internalType": "address",
          "name": "to",
          "type": "address"
        },
        {
          "internalType": "uint256",
          "name": "tokenId",
          "type": "uint256"
        },
        {
          "internalType": "bytes",
          "name": "data",
          "type": "bytes"
        }
      ],
      "name": "safeTransferFrom",
      "outputs": [],
      "stateMutability": "nonpayable",
      "type": "function"
    },
    {
      "inputs": [
        {
          "internalType": "address",
          "name": "operator",
          "type": "address"
        },
        {
          "internalType": "bool",
          "name": "approved",
          "type": "bool"
        }
      ],
      "name": "setApprovalForAll",
      "outputs": [],
      "stateMutability": "nonpayable",
      "type": "function"
    },
    {
      "inputs": [
        {
          "internalType": "bytes4",
          "name": "interfaceId",
          "type": "bytes4"
        }
      ],
      "name": "supportsInterface",
      "outputs": [
        {
          "internalType": "bool",
          "name": "",
          "type": "bool"
        }
      ],
      "stateMutability": "view",
      "type": "function"
    },
    {
      "inputs": [],
      "name": "symbol",
      "outputs": [
        {
          "internalType": "string",
          "name": "",
          "type": "string"
        }
      ],
      "stateMutability": "view",
      "type": "function"
    },
    {
      "inputs": [
        {
          "internalType": "uint256",
          "name": "tokenId",
          "type": "uint256"
        }
      ],
      "name": "tokenURI",
      "outputs": [
        {
          "internalType": "string",
          "name": "",
          "type": "string"
        }
      ],
      "stateMutability": "view",
      "type": "function"
    },
    {
      "inputs": [
        {
          "internalType": "address",
          "name": "from",
          "type": "address"
        },
        {
          "internalType": "address",
          "name": "to",
          "type": "address"
        },
        {
          "internalType": "uint256",
          "name": "tokenId",
          "type": "uint256"
        }
      ],
      "name": "transferFrom",
      "outputs": [],
      "stateMutability": "nonpayable",
      "type": "function"
    },
    {
      "inputs": [
        {
          "internalType": "uint256",
          "name": "_listPrice",
          "type": "uint256"
        }
      ],
      "name": "updateListPrice",
      "outputs": [],
      "stateMutability": "payable",
      "type": "function"
    }
  ],
  "bytecode": "0x60806040526000600a553480156200001657600080fd5b50604080518082018252600e81526d4e46544d61726b6574706c61636560901b6020808301918252835180850190945260048452634e46544d60e01b90840152815191929162000069916000916200009a565b5080516200007f9060019060208401906200009a565b5050600980546001600160a01b03191633179055506200017d565b828054620000a89062000140565b90600052602060002090601f016020900481019282620000cc576000855562000117565b82601f10620000e757805160ff191683800117855562000117565b8280016001018555821562000117579182015b8281111562000117578251825591602001919060010190620000fa565b506200012592915062000129565b5090565b5b808211156200012557600081556001016200012a565b600181811c908216806200015557607f821691505b602082108114156200017757634e487b7160e01b600052602260045260246000fd5b50919050565b61259c806200018d6000396000f3fe60806040526004361061014b5760003560e01c806391906675116100b6578063b88d4fde1161006f578063b88d4fde146103d2578063c322579c146103f2578063c87b56dd14610405578063e0391b0914610425578063e985e9c51461043a578063ef2d17461461048357600080fd5b8063919066751461034257806395d89b41146103575780639b1225c41461036c578063a22cb4651461037f578063b39aff491461039f578063b7b1b22f146103b257600080fd5b806342842e0e1161010857806342842e0e14610281578063629cb2e4146102a15780636352211e146102c357806368f1945f146102e357806370a08231146103025780637889e0871461032257600080fd5b806301ffc9a71461015057806306fdde0314610185578063081812fc146101a7578063095ea7b3146101df5780631ab07bb81461020157806323b872dd14610261575b600080fd5b34801561015c57600080fd5b5061017061016b36600461218c565b610498565b60405190151581526020015b60405180910390f35b34801561019157600080fd5b5061019a6104ea565b60405161017c9190612382565b3480156101b357600080fd5b506101c76101c236600461222c565b61057c565b6040516001600160a01b03909116815260200161017c565b3480156101eb57600080fd5b506101ff6101fa366004612163565b6105a3565b005b34801561020d57600080fd5b506101ff61021c36600461222c565b6000908152600b6020526040902060028101546001820180546001600160a01b0319166001600160a01b03909216919091179055600401805464ff0000000019169055565b34801561026d57600080fd5b506101ff61027c366004612075565b6106be565b34801561028d57600080fd5b506101ff61029c366004612075565b6106ef565b3480156102ad57600080fd5b506102b661070a565b60405161017c91906122f6565b3480156102cf57600080fd5b506101c76102de36600461222c565b610961565b3480156102ef57600080fd5b50600a545b60405190815260200161017c565b34801561030e57600080fd5b506102f461031d366004612029565b6109c1565b34801561032e57600080fd5b506102b661033d366004612244565b610a47565b34801561034e57600080fd5b506102b6610c3b565b34801561036357600080fd5b5061019a610e2c565b6101ff61037a36600461222c565b610e3b565b34801561038b57600080fd5b506101ff61039a366004612129565b610f63565b6102f46103ad3660046121c4565b610f72565b3480156103be57600080fd5b506102b66103cd36600461222c565b6111a9565b3480156103de57600080fd5b506101ff6103ed3660046120b0565b6112ed565b6101ff61040036600461222c565b61131f565b34801561041157600080fd5b5061019a61042036600461222c565b61138a565b34801561043157600080fd5b506102b661149b565b34801561044657600080fd5b50610170610455366004612043565b6001600160a01b03918216600090815260056020908152604080832093909416825291909152205460ff1690565b34801561048f57600080fd5b506102f46115f5565b60006001600160e01b031982166380ac58cd60e01b14806104c957506001600160e01b03198216635b5e139f60e01b145b806104e457506301ffc9a760e01b6001600160e01b03198316145b92915050565b6060600080546104f9906124a4565b80601f0160208091040260200160405190810160405280929190818152602001828054610525906124a4565b80156105725780601f1061054757610100808354040283529160200191610572565b820191906000526020600020905b81548152906001019060200180831161055557829003601f168201915b5050505050905090565b600061058782611605565b506000908152600460205260409020546001600160a01b031690565b60006105ae82610961565b9050806001600160a01b0316836001600160a01b031614156106215760405162461bcd60e51b815260206004820152602160248201527f4552433732313a20617070726f76616c20746f2063757272656e74206f776e656044820152603960f91b60648201526084015b60405180910390fd5b336001600160a01b038216148061063d575061063d8133610455565b6106af5760405162461bcd60e51b815260206004820152603e60248201527f4552433732313a20617070726f76652063616c6c6572206973206e6f7420746f60448201527f6b656e206f776e6572206e6f7220617070726f76656420666f7220616c6c00006064820152608401610618565b6106b98383611667565b505050565b6106c833826116d5565b6106e45760405162461bcd60e51b8152600401610618906123e7565b6106b9838383611753565b6106b9838383604051806020016040528060008152506112ed565b6060600061071760075490565b905060008080805b848110156107af5733600b6000610737846001612435565b81526020810191909152604001600020600101546001600160a01b0316148061078a575033600b600061076b846001612435565b81526020810191909152604001600020600201546001600160a01b0316145b1561079d5761079a600185612435565b93505b806107a7816124df565b91505061071f565b5060008367ffffffffffffffff8111156107d957634e487b7160e01b600052604160045260246000fd5b60405190808252806020026020018201604052801561081257816020015b6107ff611eb5565b8152602001906001900390816107f75790505b50905060005b858110156109575733600b6000610830846001612435565b81526020810191909152604001600020600101546001600160a01b03161480610883575033600b6000610864846001612435565b81526020810191909152604001600020600201546001600160a01b0316145b1561094557610893816001612435565b6000818152600b6020908152604091829020825160c0810184528154815260018201546001600160a01b039081169382019390935260028201549092169282019290925260038201546060820152600482015463ffffffff81166080830152640100000000900460ff16151560a08201528451929550909184908790811061092b57634e487b7160e01b600052603260045260246000fd5b6020908102919091010152610941600186612435565b9450505b8061094f816124df565b915050610818565b5095945050505050565b6000818152600260205260408120546001600160a01b0316806104e45760405162461bcd60e51b8152602060048201526018602482015277115490cdcc8c4e881a5b9d985b1a59081d1bdad95b88125160421b6044820152606401610618565b60006001600160a01b038216610a2b5760405162461bcd60e51b815260206004820152602960248201527f4552433732313a2061646472657373207a65726f206973206e6f7420612076616044820152683634b21037bbb732b960b91b6064820152608401610618565b506001600160a01b031660009081526003602052604090205490565b60606000610a5460075490565b905060008080805b84811015610aba5763ffffffff8716600b6000610a7a846001612435565b815260208101919091526040016000206004015463ffffffff161415610aa857610aa5600185612435565b93505b80610ab2816124df565b915050610a5c565b5060008367ffffffffffffffff811115610ae457634e487b7160e01b600052604160045260246000fd5b604051908082528060200260200182016040528015610b1d57816020015b610b0a611eb5565b815260200190600190039081610b025790505b50905060005b85811015610c305763ffffffff8816600b6000610b41846001612435565b815260208101919091526040016000206004015463ffffffff161415610c1e57610b6c816001612435565b6000818152600b6020908152604091829020825160c0810184528154815260018201546001600160a01b039081169382019390935260028201549092169282019290925260038201546060820152600482015463ffffffff81166080830152640100000000900460ff16151560a082015284519295509091849087908110610c0457634e487b7160e01b600052603260045260246000fd5b6020908102919091010152610c1a600186612435565b9450505b80610c28816124df565b915050610b23565b509695505050505050565b60606000610c4860075490565b905060008080805b84811015610cb257600b6000610c67836001612435565b815260200190815260200160002060040160049054906101000a900460ff161515600115151415610ca057610c9d600185612435565b93505b80610caa816124df565b915050610c50565b5060008367ffffffffffffffff811115610cdc57634e487b7160e01b600052604160045260246000fd5b604051908082528060200260200182016040528015610d1557816020015b610d02611eb5565b815260200190600190039081610cfa5790505b50905060005b8581101561095757600b6000610d32836001612435565b815260200190815260200160002060040160049054906101000a900460ff161515600115151415610e1a57610d68816001612435565b6000818152600b6020908152604091829020825160c0810184528154815260018201546001600160a01b039081169382019390935260028201549092169282019290925260038201546060820152600482015463ffffffff81166080830152640100000000900460ff16151560a082015284519295509091849087908110610e0057634e487b7160e01b600052603260045260246000fd5b6020908102919091010152610e16600186612435565b9450505b80610e24816124df565b915050610d1b565b6060600180546104f9906124a4565b6000818152600b6020526040902060038101546002909101546001600160a01b0316348214610ed4576040805162461bcd60e51b81526020600482015260248101919091527f506c65617365207375626d6974207468652061736b696e67207072696365206960448201527f6e206f7264657220746f20636f6d706c657465207468652070757263686173656064820152608401610618565b6000838152600b6020526040902060048101805464ff000000001916905560010180546001600160a01b03191633179055610f13600880546001019055565b610f1e303385611753565b610f2830846105a3565b6040516001600160a01b038216903480156108fc02916000818181858888f19350505050158015610f5d573d6000803e3d6000fd5b50505050565b610f6e3383836118ef565b5050565b6000600a543414610fbe5760405162461bcd60e51b815260206004820152601660248201527553656e642074686520636f727265637420707269636560501b6044820152606401610618565b66b1a2bc2ec5000083116110295760405162461bcd60e51b815260206004820152602c60248201527f4d616b652073757265207468652070726963652069736e2774206c657373207460448201526b0d0c2dc40605c606a408aa8960a31b6064820152608401610618565b611037600780546001019055565b600061104260075490565b905061104e33826119be565b61105881866119d8565b6040805160c081018252828152306020808301918252338385019081526060840189815263ffffffff808a1660808701908152600160a0880181815260008b8152600b90975289872098518955965190880180546001600160a01b039283166001600160a01b0319918216179091559451600289018054918316919096161790945591516003870155905160049095018054945115156401000000000264ffffffffff19909516959091169490941792909217909255600954600a54935191169280156108fc0292909190818181858888f19350505050158015611140573d6000803e3d6000fd5b5061114c333083611753565b6040805130815233602082015290810185905263ffffffff841660608201526001608082015281907f6cefb4141c64fb4d71da23730663506f9f07f8b2e67df7a9b553353232baa73e9060a00160405180910390a2949350505050565b606060006111b660075490565b60408051600180825281830190925291925060009190816020015b6111d9611eb5565b8152602001906001900390816111d157905050905060005b828110156112e55784600b6000611209846001612435565b81526020019081526020016000206000015414156112d3576000600b81611231846001612435565b815260208082019290925260409081016000908120825160c0810184528154815260018201546001600160a01b039081169582019590955260028201549094169284019290925260038201546060840152600482015463ffffffff81166080850152640100000000900460ff16151560a0840152855191935085916112c657634e487b7160e01b600052603260045260246000fd5b6020026020010181905250505b806112dd816124df565b9150506111f1565b509392505050565b6112f733836116d5565b6113135760405162461bcd60e51b8152600401610618906123e7565b610f5d84848484611a72565b6009546001600160a01b031633146113855760405162461bcd60e51b815260206004820152602360248201527f4f6e6c79206f776e65722063616e20757064617465206c697374696e6720707260448201526269636560e81b6064820152608401610618565b600a55565b606061139582611605565b600082815260066020526040812080546113ae906124a4565b80601f01602080910402602001604051908101604052809291908181526020018280546113da906124a4565b80156114275780601f106113fc57610100808354040283529160200191611427565b820191906000526020600020905b81548152906001019060200180831161140a57829003601f168201915b50505050509050600061144560408051602081019091526000815290565b9050805160001415611458575092915050565b81511561148a57808260405160200161147292919061228a565b60405160208183030381529060405292505050919050565b61149384611aa5565b949350505050565b606060006114a860075490565b905060008167ffffffffffffffff8111156114d357634e487b7160e01b600052604160045260246000fd5b60405190808252806020026020018201604052801561150c57816020015b6114f9611eb5565b8152602001906001900390816114f15790505b509050600080805b848110156115eb57611527816001612435565b6000818152600b6020908152604091829020825160c0810184528154815260018201546001600160a01b039081169382019390935260028201549092169282019290925260038201546060820152600482015463ffffffff81166080830152640100000000900460ff16151560a0820152865192945090918690869081106115bf57634e487b7160e01b600052603260045260246000fd5b60209081029190910101526115d5600185612435565b93505080806115e3906124df565b915050611514565b5091949350505050565b600061160060075490565b905090565b6000818152600260205260409020546001600160a01b03166116645760405162461bcd60e51b8152602060048201526018602482015277115490cdcc8c4e881a5b9d985b1a59081d1bdad95b88125160421b6044820152606401610618565b50565b600081815260046020526040902080546001600160a01b0319166001600160a01b038416908117909155819061169c82610961565b6001600160a01b03167f8c5be1e5ebec7d5bd14f71427d1e84f3dd0314c0f7b2291e5b200ac8c7c3b92560405160405180910390a45050565b6000806116e183610961565b9050806001600160a01b0316846001600160a01b0316148061172857506001600160a01b0380821660009081526005602090815260408083209388168352929052205460ff165b806114935750836001600160a01b03166117418461057c565b6001600160a01b031614949350505050565b826001600160a01b031661176682610961565b6001600160a01b0316146117ca5760405162461bcd60e51b815260206004820152602560248201527f4552433732313a207472616e736665722066726f6d20696e636f72726563742060448201526437bbb732b960d91b6064820152608401610618565b6001600160a01b03821661182c5760405162461bcd60e51b8152602060048201526024808201527f4552433732313a207472616e7366657220746f20746865207a65726f206164646044820152637265737360e01b6064820152608401610618565b611837600082611667565b6001600160a01b0383166000908152600360205260408120805460019290611860908490612461565b90915550506001600160a01b038216600090815260036020526040812080546001929061188e908490612435565b909155505060008181526002602052604080822080546001600160a01b0319166001600160a01b0386811691821790925591518493918716917fddf252ad1be2c89b69c2b068fc378daa952ba7f163c4a11628f55a4df523b3ef91a4505050565b816001600160a01b0316836001600160a01b031614156119515760405162461bcd60e51b815260206004820152601960248201527f4552433732313a20617070726f766520746f2063616c6c6572000000000000006044820152606401610618565b6001600160a01b03838116600081815260056020908152604080832094871680845294825291829020805460ff191686151590811790915591519182527f17307eab39ab6107e8899845ad3d59bd9653f200f220920489ca2b5937696c31910160405180910390a3505050565b610f6e828260405180602001604052806000815250611b19565b6000828152600260205260409020546001600160a01b0316611a535760405162461bcd60e51b815260206004820152602e60248201527f45524337323155524953746f726167653a2055524920736574206f66206e6f6e60448201526d32bc34b9ba32b73a103a37b5b2b760911b6064820152608401610618565b600082815260066020908152604090912082516106b992840190611eea565b611a7d848484611753565b611a8984848484611b4c565b610f5d5760405162461bcd60e51b815260040161061890612395565b6060611ab082611605565b6000611ac760408051602081019091526000815290565b90506000815111611ae75760405180602001604052806000815250611b12565b80611af184611c59565b604051602001611b0292919061228a565b6040516020818303038152906040525b9392505050565b611b238383611d73565b611b306000848484611b4c565b6106b95760405162461bcd60e51b815260040161061890612395565b60006001600160a01b0384163b15611c4e57604051630a85bd0160e11b81526001600160a01b0385169063150b7a0290611b909033908990889088906004016122b9565b602060405180830381600087803b158015611baa57600080fd5b505af1925050508015611bda575060408051601f3d908101601f19168201909252611bd7918101906121a8565b60015b611c34573d808015611c08576040519150601f19603f3d011682016040523d82523d6000602084013e611c0d565b606091505b508051611c2c5760405162461bcd60e51b815260040161061890612395565b805181602001fd5b6001600160e01b031916630a85bd0160e11b149050611493565b506001949350505050565b606081611c7d5750506040805180820190915260018152600360fc1b602082015290565b8160005b8115611ca75780611c91816124df565b9150611ca09050600a8361244d565b9150611c81565b60008167ffffffffffffffff811115611cd057634e487b7160e01b600052604160045260246000fd5b6040519080825280601f01601f191660200182016040528015611cfa576020820181803683370190505b5090505b841561149357611d0f600183612461565b9150611d1c600a866124fa565b611d27906030612435565b60f81b818381518110611d4a57634e487b7160e01b600052603260045260246000fd5b60200101906001600160f81b031916908160001a905350611d6c600a8661244d565b9450611cfe565b6001600160a01b038216611dc95760405162461bcd60e51b815260206004820181905260248201527f4552433732313a206d696e7420746f20746865207a65726f20616464726573736044820152606401610618565b6000818152600260205260409020546001600160a01b031615611e2e5760405162461bcd60e51b815260206004820152601c60248201527f4552433732313a20746f6b656e20616c7265616479206d696e746564000000006044820152606401610618565b6001600160a01b0382166000908152600360205260408120805460019290611e57908490612435565b909155505060008181526002602052604080822080546001600160a01b0319166001600160a01b03861690811790915590518392907fddf252ad1be2c89b69c2b068fc378daa952ba7f163c4a11628f55a4df523b3ef908290a45050565b6040805160c081018252600080825260208201819052918101829052606081018290526080810182905260a081019190915290565b828054611ef6906124a4565b90600052602060002090601f016020900481019282611f185760008555611f5e565b82601f10611f3157805160ff1916838001178555611f5e565b82800160010185558215611f5e579182015b82811115611f5e578251825591602001919060010190611f43565b50611f6a929150611f6e565b5090565b5b80821115611f6a5760008155600101611f6f565b600067ffffffffffffffff80841115611f9e57611f9e61253a565b604051601f8501601f19908116603f01168101908282118183101715611fc657611fc661253a565b81604052809350858152868686011115611fdf57600080fd5b858560208301376000602087830101525050509392505050565b80356001600160a01b038116811461201057600080fd5b919050565b803563ffffffff8116811461201057600080fd5b60006020828403121561203a578081fd5b611b1282611ff9565b60008060408385031215612055578081fd5b61205e83611ff9565b915061206c60208401611ff9565b90509250929050565b600080600060608486031215612089578081fd5b61209284611ff9565b92506120a060208501611ff9565b9150604084013590509250925092565b600080600080608085870312156120c5578081fd5b6120ce85611ff9565b93506120dc60208601611ff9565b925060408501359150606085013567ffffffffffffffff8111156120fe578182fd5b8501601f8101871361210e578182fd5b61211d87823560208401611f83565b91505092959194509250565b6000806040838503121561213b578182fd5b61214483611ff9565b915060208301358015158114612158578182fd5b809150509250929050565b60008060408385031215612175578182fd5b61217e83611ff9565b946020939093013593505050565b60006020828403121561219d578081fd5b8135611b1281612550565b6000602082840312156121b9578081fd5b8151611b1281612550565b6000806000606084860312156121d8578283fd5b833567ffffffffffffffff8111156121ee578384fd5b8401601f810186136121fe578384fd5b61220d86823560208401611f83565b9350506020840135915061222360408501612015565b90509250925092565b60006020828403121561223d578081fd5b5035919050565b600060208284031215612255578081fd5b611b1282612015565b60008151808452612276816020860160208601612478565b601f01601f19169290920160200192915050565b6000835161229c818460208801612478565b8351908301906122b0818360208801612478565b01949350505050565b6001600160a01b03858116825284166020820152604081018390526080606082018190526000906122ec9083018461225e565b9695505050505050565b602080825282518282018190526000919060409081850190868401855b8281101561237557815180518552868101516001600160a01b03908116888701528682015116868601526060808201519086015260808082015163ffffffff169086015260a09081015115159085015260c09093019290850190600101612313565b5091979650505050505050565b602081526000611b12602083018461225e565b60208082526032908201527f4552433732313a207472616e7366657220746f206e6f6e20455243373231526560408201527131b2b4bb32b91034b6b83632b6b2b73a32b960711b606082015260800190565b6020808252602e908201527f4552433732313a2063616c6c6572206973206e6f7420746f6b656e206f776e6560408201526d1c881b9bdc88185c1c1c9bdd995960921b606082015260800190565b600082198211156124485761244861250e565b500190565b60008261245c5761245c612524565b500490565b6000828210156124735761247361250e565b500390565b60005b8381101561249357818101518382015260200161247b565b83811115610f5d5750506000910152565b600181811c908216806124b857607f821691505b602082108114156124d957634e487b7160e01b600052602260045260246000fd5b50919050565b60006000198214156124f3576124f361250e565b5060010190565b60008261250957612509612524565b500690565b634e487b7160e01b600052601160045260246000fd5b634e487b7160e01b600052601260045260246000fd5b634e487b7160e01b600052604160045260246000fd5b6001600160e01b03198116811461166457600080fdfea2646970667358221220fa417b24b3650e9df83be9b7cc2d15614cfcdd41d80e6cf2bcfdd5c9e716144564736f6c63430008040033",
  "linkReferences": {},
  "deployedLinkReferences": {}
}