{
  "_format": "hh-sol-artifact-1",
  "contractName": "NFTMarketplace",
  "sourceName": "contracts/NFTMarketplace.sol",
  "abi": [
    {
      "inputs": [],
      "stateMutability": "nonpayable",
      "type": "constructor"
    },
    {
      "anonymous": false,
      "inputs": [
        {
          "indexed": true,
          "internalType": "address",
          "name": "owner",
          "type": "address"
        },
        {
          "indexed": true,
          "internalType": "address",
          "name": "approved",
          "type": "address"
        },
        {
          "indexed": true,
          "internalType": "uint256",
          "name": "tokenId",
          "type": "uint256"
        }
      ],
      "name": "Approval",
      "type": "event"
    },
    {
      "anonymous": false,
      "inputs": [
        {
          "indexed": true,
          "internalType": "address",
          "name": "owner",
          "type": "address"
        },
        {
          "indexed": true,
          "internalType": "address",
          "name": "operator",
          "type": "address"
        },
        {
          "indexed": false,
          "internalType": "bool",
          "name": "approved",
          "type": "bool"
        }
      ],
      "name": "ApprovalForAll",
      "type": "event"
    },
    {
      "anonymous": false,
      "inputs": [
        {
          "indexed": true,
          "internalType": "uint256",
          "name": "tokenId",
          "type": "uint256"
        },
        {
          "indexed": false,
          "internalType": "address",
          "name": "owner",
          "type": "address"
        },
        {
          "indexed": false,
          "internalType": "address",
          "name": "seller",
          "type": "address"
        },
        {
          "indexed": false,
          "internalType": "uint256",
          "name": "price",
          "type": "uint256"
        },
        {
          "indexed": false,
          "internalType": "bool",
          "name": "currentlyListed",
          "type": "bool"
        }
      ],
      "name": "TokenListedSuccess",
      "type": "event"
    },
    {
      "anonymous": false,
      "inputs": [
        {
          "indexed": true,
          "internalType": "address",
          "name": "from",
          "type": "address"
        },
        {
          "indexed": true,
          "internalType": "address",
          "name": "to",
          "type": "address"
        },
        {
          "indexed": true,
          "internalType": "uint256",
          "name": "tokenId",
          "type": "uint256"
        }
      ],
      "name": "Transfer",
      "type": "event"
    },
    {
      "inputs": [
        {
          "internalType": "address",
          "name": "to",
          "type": "address"
        },
        {
          "internalType": "uint256",
          "name": "tokenId",
          "type": "uint256"
        }
      ],
      "name": "approve",
      "outputs": [],
      "stateMutability": "nonpayable",
      "type": "function"
    },
    {
      "inputs": [
        {
          "internalType": "address",
          "name": "owner",
          "type": "address"
        }
      ],
      "name": "balanceOf",
      "outputs": [
        {
          "internalType": "uint256",
          "name": "",
          "type": "uint256"
        }
      ],
      "stateMutability": "view",
      "type": "function"
    },
    {
      "inputs": [
        {
          "internalType": "string",
          "name": "tokenURI",
          "type": "string"
        },
        {
          "internalType": "uint256",
          "name": "price",
          "type": "uint256"
        }
      ],
      "name": "createToken",
      "outputs": [
        {
          "internalType": "uint256",
          "name": "",
          "type": "uint256"
        }
      ],
      "stateMutability": "payable",
      "type": "function"
    },
    {
      "inputs": [
        {
          "internalType": "uint256",
          "name": "tokenId",
          "type": "uint256"
        }
      ],
      "name": "executeSale",
      "outputs": [],
      "stateMutability": "payable",
      "type": "function"
    },
    {
      "inputs": [],
      "name": "getAllNFTs",
      "outputs": [
        {
          "components": [
            {
              "internalType": "uint256",
              "name": "tokenId",
              "type": "uint256"
            },
            {
              "internalType": "address payable",
              "name": "owner",
              "type": "address"
            },
            {
              "internalType": "address payable",
              "name": "seller",
              "type": "address"
            },
            {
              "internalType": "uint256",
              "name": "price",
              "type": "uint256"
            },
            {
              "internalType": "bool",
              "name": "currentlyListed",
              "type": "bool"
            }
          ],
          "internalType": "struct NFTMarketplace.ListedToken[]",
          "name": "",
          "type": "tuple[]"
        }
      ],
      "stateMutability": "view",
      "type": "function"
    },
    {
      "inputs": [
        {
          "internalType": "uint256",
          "name": "tokenId",
          "type": "uint256"
        }
      ],
      "name": "getApproved",
      "outputs": [
        {
          "internalType": "address",
          "name": "",
          "type": "address"
        }
      ],
      "stateMutability": "view",
      "type": "function"
    },
    {
      "inputs": [],
      "name": "getCurrentToken",
      "outputs": [
        {
          "internalType": "uint256",
          "name": "",
          "type": "uint256"
        }
      ],
      "stateMutability": "view",
      "type": "function"
    },
    {
      "inputs": [],
      "name": "getLatestIdToListedToken",
      "outputs": [
        {
          "components": [
            {
              "internalType": "uint256",
              "name": "tokenId",
              "type": "uint256"
            },
            {
              "internalType": "address payable",
              "name": "owner",
              "type": "address"
            },
            {
              "internalType": "address payable",
              "name": "seller",
              "type": "address"
            },
            {
              "internalType": "uint256",
              "name": "price",
              "type": "uint256"
            },
            {
              "internalType": "bool",
              "name": "currentlyListed",
              "type": "bool"
            }
          ],
          "internalType": "struct NFTMarketplace.ListedToken",
          "name": "",
          "type": "tuple"
        }
      ],
      "stateMutability": "view",
      "type": "function"
    },
    {
      "inputs": [],
      "name": "getListPrice",
      "outputs": [
        {
          "internalType": "uint256",
          "name": "",
          "type": "uint256"
        }
      ],
      "stateMutability": "view",
      "type": "function"
    },
    {
      "inputs": [
        {
          "internalType": "uint256",
          "name": "tokenId",
          "type": "uint256"
        }
      ],
      "name": "getListedTokenForId",
      "outputs": [
        {
          "components": [
            {
              "internalType": "uint256",
              "name": "tokenId",
              "type": "uint256"
            },
            {
              "internalType": "address payable",
              "name": "owner",
              "type": "address"
            },
            {
              "internalType": "address payable",
              "name": "seller",
              "type": "address"
            },
            {
              "internalType": "uint256",
              "name": "price",
              "type": "uint256"
            },
            {
              "internalType": "bool",
              "name": "currentlyListed",
              "type": "bool"
            }
          ],
          "internalType": "struct NFTMarketplace.ListedToken",
          "name": "",
          "type": "tuple"
        }
      ],
      "stateMutability": "view",
      "type": "function"
    },
    {
      "inputs": [],
      "name": "getMyNFTs",
      "outputs": [
        {
          "components": [
            {
              "internalType": "uint256",
              "name": "tokenId",
              "type": "uint256"
            },
            {
              "internalType": "address payable",
              "name": "owner",
              "type": "address"
            },
            {
              "internalType": "address payable",
              "name": "seller",
              "type": "address"
            },
            {
              "internalType": "uint256",
              "name": "price",
              "type": "uint256"
            },
            {
              "internalType": "bool",
              "name": "currentlyListed",
              "type": "bool"
            }
          ],
          "internalType": "struct NFTMarketplace.ListedToken[]",
          "name": "",
          "type": "tuple[]"
        }
      ],
      "stateMutability": "view",
      "type": "function"
    },
    {
      "inputs": [
        {
          "internalType": "address",
          "name": "owner",
          "type": "address"
        },
        {
          "internalType": "address",
          "name": "operator",
          "type": "address"
        }
      ],
      "name": "isApprovedForAll",
      "outputs": [
        {
          "internalType": "bool",
          "name": "",
          "type": "bool"
        }
      ],
      "stateMutability": "view",
      "type": "function"
    },
    {
      "inputs": [],
      "name": "name",
      "outputs": [
        {
          "internalType": "string",
          "name": "",
          "type": "string"
        }
      ],
      "stateMutability": "view",
      "type": "function"
    },
    {
      "inputs": [
        {
          "internalType": "uint256",
          "name": "tokenId",
          "type": "uint256"
        }
      ],
      "name": "ownerOf",
      "outputs": [
        {
          "internalType": "address",
          "name": "",
          "type": "address"
        }
      ],
      "stateMutability": "view",
      "type": "function"
    },
    {
      "inputs": [
        {
          "internalType": "address",
          "name": "from",
          "type": "address"
        },
        {
          "internalType": "address",
          "name": "to",
          "type": "address"
        },
        {
          "internalType": "uint256",
          "name": "tokenId",
          "type": "uint256"
        }
      ],
      "name": "safeTransferFrom",
      "outputs": [],
      "stateMutability": "nonpayable",
      "type": "function"
    },
    {
      "inputs": [
        {
          "internalType": "address",
          "name": "from",
          "type": "address"
        },
        {
          "internalType": "address",
          "name": "to",
          "type": "address"
        },
        {
          "internalType": "uint256",
          "name": "tokenId",
          "type": "uint256"
        },
        {
          "internalType": "bytes",
          "name": "data",
          "type": "bytes"
        }
      ],
      "name": "safeTransferFrom",
      "outputs": [],
      "stateMutability": "nonpayable",
      "type": "function"
    },
    {
      "inputs": [
        {
          "internalType": "address",
          "name": "operator",
          "type": "address"
        },
        {
          "internalType": "bool",
          "name": "approved",
          "type": "bool"
        }
      ],
      "name": "setApprovalForAll",
      "outputs": [],
      "stateMutability": "nonpayable",
      "type": "function"
    },
    {
      "inputs": [
        {
          "internalType": "bytes4",
          "name": "interfaceId",
          "type": "bytes4"
        }
      ],
      "name": "supportsInterface",
      "outputs": [
        {
          "internalType": "bool",
          "name": "",
          "type": "bool"
        }
      ],
      "stateMutability": "view",
      "type": "function"
    },
    {
      "inputs": [],
      "name": "symbol",
      "outputs": [
        {
          "internalType": "string",
          "name": "",
          "type": "string"
        }
      ],
      "stateMutability": "view",
      "type": "function"
    },
    {
      "inputs": [
        {
          "internalType": "uint256",
          "name": "tokenId",
          "type": "uint256"
        }
      ],
      "name": "tokenURI",
      "outputs": [
        {
          "internalType": "string",
          "name": "",
          "type": "string"
        }
      ],
      "stateMutability": "view",
      "type": "function"
    },
    {
      "inputs": [
        {
          "internalType": "address",
          "name": "from",
          "type": "address"
        },
        {
          "internalType": "address",
          "name": "to",
          "type": "address"
        },
        {
          "internalType": "uint256",
          "name": "tokenId",
          "type": "uint256"
        }
      ],
      "name": "transferFrom",
      "outputs": [],
      "stateMutability": "nonpayable",
      "type": "function"
    },
    {
      "inputs": [
        {
          "internalType": "uint256",
          "name": "_listPrice",
          "type": "uint256"
        }
      ],
      "name": "updateListPrice",
      "outputs": [],
      "stateMutability": "payable",
      "type": "function"
    }
  ],
  "bytecode": "0x6080604052662386f26fc10000600a553480156200001c57600080fd5b50604080518082018252600e81526d4e46544d61726b6574706c61636560901b6020808301918252835180850190945260048452634e46544d60e01b9084015281519192916200006f91600091620000a0565b50805162000085906001906020840190620000a0565b5050600980546001600160a01b031916331790555062000183565b828054620000ae9062000146565b90600052602060002090601f016020900481019282620000d257600085556200011d565b82601f10620000ed57805160ff19168380011785556200011d565b828001600101855582156200011d579182015b828111156200011d57825182559160200191906001019062000100565b506200012b9291506200012f565b5090565b5b808211156200012b576000815560010162000130565b600181811c908216806200015b57607f821691505b602082108114156200017d57634e487b7160e01b600052602260045260246000fd5b50919050565b61205480620001936000396000f3fe6080604052600436106101355760003560e01c80638e264590116100ab578063c322579c1161006f578063c322579c14610354578063c87b56dd14610367578063d1a88ae514610387578063e0391b091461039c578063e985e9c5146103b1578063ef2d1746146103fa57600080fd5b80638e264590146102bf57806395d89b41146102ec5780639b1225c414610301578063a22cb46514610314578063b88d4fde1461033457600080fd5b806342842e0e116100fd57806342842e0e1461020b578063629cb2e41461022b5780636352211e1461024d57806368f1945f1461026d57806370a082311461028c57806372b3b620146102ac57600080fd5b806301ffc9a71461013a57806306fdde031461016f578063081812fc14610191578063095ea7b3146101c957806323b872dd146101eb575b600080fd5b34801561014657600080fd5b5061015a610155366004611c60565b61040f565b60405190151581526020015b60405180910390f35b34801561017b57600080fd5b50610184610461565b6040516101669190611e2c565b34801561019d57600080fd5b506101b16101ac366004611cee565b6104f3565b6040516001600160a01b039091168152602001610166565b3480156101d557600080fd5b506101e96101e4366004611c37565b61051a565b005b3480156101f757600080fd5b506101e9610206366004611b49565b610635565b34801561021757600080fd5b506101e9610226366004611b49565b610666565b34801561023757600080fd5b50610240610681565b6040516101669190611dde565b34801561025957600080fd5b506101b1610268366004611cee565b6108c4565b34801561027957600080fd5b50600a545b604051908152602001610166565b34801561029857600080fd5b5061027e6102a7366004611afd565b610924565b61027e6102ba366004611c98565b6109aa565b3480156102cb57600080fd5b506102df6102da366004611cee565b6109ec565b6040516101669190611edf565b3480156102f857600080fd5b50610184610a56565b6101e961030f366004611cee565b610a65565b34801561032057600080fd5b506101e961032f366004611bfd565b610bc9565b34801561034057600080fd5b506101e961034f366004611b84565b610bd8565b6101e9610362366004611cee565b610c0a565b34801561037357600080fd5b50610184610382366004611cee565b610c75565b34801561039357600080fd5b506102df610d86565b3480156103a857600080fd5b50610240610dfd565b3480156103bd57600080fd5b5061015a6103cc366004611b17565b6001600160a01b03918216600090815260056020908152604080832093909416825291909152205460ff1690565b34801561040657600080fd5b5061027e610f43565b60006001600160e01b031982166380ac58cd60e01b148061044057506001600160e01b03198216635b5e139f60e01b145b8061045b57506301ffc9a760e01b6001600160e01b03198316145b92915050565b60606000805461047090611f5c565b80601f016020809104026020016040519081016040528092919081815260200182805461049c90611f5c565b80156104e95780601f106104be576101008083540402835291602001916104e9565b820191906000526020600020905b8154815290600101906020018083116104cc57829003601f168201915b5050505050905090565b60006104fe82610f53565b506000908152600460205260409020546001600160a01b031690565b6000610525826108c4565b9050806001600160a01b0316836001600160a01b031614156105985760405162461bcd60e51b815260206004820152602160248201527f4552433732313a20617070726f76616c20746f2063757272656e74206f776e656044820152603960f91b60648201526084015b60405180910390fd5b336001600160a01b03821614806105b457506105b481336103cc565b6106265760405162461bcd60e51b815260206004820152603e60248201527f4552433732313a20617070726f76652063616c6c6572206973206e6f7420746f60448201527f6b656e206f776e6572206e6f7220617070726f76656420666f7220616c6c0000606482015260840161058f565b6106308383610fb5565b505050565b61063f3382611023565b61065b5760405162461bcd60e51b815260040161058f90611e91565b6106308383836110a1565b61063083838360405180602001604052806000815250610bd8565b6060600061068e60075490565b905060008080805b848110156107265733600b60006106ae846001611eed565b81526020810191909152604001600020600101546001600160a01b03161480610701575033600b60006106e2846001611eed565b81526020810191909152604001600020600201546001600160a01b0316145b1561071457610711600185611eed565b93505b8061071e81611f97565b915050610696565b5060008367ffffffffffffffff81111561075057634e487b7160e01b600052604160045260246000fd5b60405190808252806020026020018201604052801561078957816020015b6107766119a4565b81526020019060019003908161076e5790505b50905060005b858110156108ba5733600b60006107a7846001611eed565b81526020810191909152604001600020600101546001600160a01b031614806107fa575033600b60006107db846001611eed565b81526020810191909152604001600020600201546001600160a01b0316145b156108a85761080a816001611eed565b6000818152600b6020908152604091829020825160a0810184528154815260018201546001600160a01b039081169382019390935260028201549092169282019290925260038201546060820152600482015460ff16151560808201528451929550909184908790811061088e57634e487b7160e01b600052603260045260246000fd5b60209081029190910101526108a4600186611eed565b9450505b806108b281611f97565b91505061078f565b5095945050505050565b6000818152600260205260408120546001600160a01b03168061045b5760405162461bcd60e51b8152602060048201526018602482015277115490cdcc8c4e881a5b9d985b1a59081d1bdad95b88125160421b604482015260640161058f565b60006001600160a01b03821661098e5760405162461bcd60e51b815260206004820152602960248201527f4552433732313a2061646472657373207a65726f206973206e6f7420612076616044820152683634b21037bbb732b960b91b606482015260840161058f565b506001600160a01b031660009081526003602052604090205490565b60006109ba600780546001019055565b60006109c560075490565b90506109d1338261123d565b6109db8185611257565b6109e581846112f1565b9392505050565b6109f46119a4565b506000908152600b6020908152604091829020825160a0810184528154815260018201546001600160a01b03908116938201939093526002820154909216928201929092526003820154606082015260049091015460ff161515608082015290565b60606001805461047090611f5c565b6000818152600b6020526040902060038101546002909101546001600160a01b0316348214610afe576040805162461bcd60e51b81526020600482015260248101919091527f506c65617365207375626d6974207468652061736b696e67207072696365206960448201527f6e206f7264657220746f20636f6d706c65746520746865207075726368617365606482015260840161058f565b6000838152600b6020526040902060048101805460ff1916600117905560020180546001600160a01b03191633179055610b3c600880546001019055565b610b473033856110a1565b610b51308461051a565b600954600a546040516001600160a01b039092169181156108fc0291906000818181858888f19350505050158015610b8d573d6000803e3d6000fd5b506040516001600160a01b038216903480156108fc02916000818181858888f19350505050158015610bc3573d6000803e3d6000fd5b50505050565b610bd4338383611493565b5050565b610be23383611023565b610bfe5760405162461bcd60e51b815260040161058f90611e91565b610bc384848484611562565b6009546001600160a01b03163314610c705760405162461bcd60e51b815260206004820152602360248201527f4f6e6c79206f776e65722063616e20757064617465206c697374696e6720707260448201526269636560e81b606482015260840161058f565b600a55565b6060610c8082610f53565b60008281526006602052604081208054610c9990611f5c565b80601f0160208091040260200160405190810160405280929190818152602001828054610cc590611f5c565b8015610d125780601f10610ce757610100808354040283529160200191610d12565b820191906000526020600020905b815481529060010190602001808311610cf557829003601f168201915b505050505090506000610d3060408051602081019091526000815290565b9050805160001415610d43575092915050565b815115610d75578082604051602001610d5d929190611d72565b60405160208183030381529060405292505050919050565b610d7e84611595565b949350505050565b610d8e6119a4565b6000610d9960075490565b6000908152600b6020908152604091829020825160a0810184528154815260018201546001600160a01b03908116938201939093526002820154909216928201929092526003820154606082015260049091015460ff161515608082015292915050565b60606000610e0a60075490565b905060008167ffffffffffffffff811115610e3557634e487b7160e01b600052604160045260246000fd5b604051908082528060200260200182016040528015610e6e57816020015b610e5b6119a4565b815260200190600190039081610e535790505b509050600080805b84811015610f3957610e89816001611eed565b6000818152600b6020908152604091829020825160a0810184528154815260018201546001600160a01b039081169382019390935260028201549092169282019290925260038201546060820152600482015460ff161515608082015286519294509091869086908110610f0d57634e487b7160e01b600052603260045260246000fd5b6020908102919091010152610f23600185611eed565b9350508080610f3190611f97565b915050610e76565b5091949350505050565b6000610f4e60075490565b905090565b6000818152600260205260409020546001600160a01b0316610fb25760405162461bcd60e51b8152602060048201526018602482015277115490cdcc8c4e881a5b9d985b1a59081d1bdad95b88125160421b604482015260640161058f565b50565b600081815260046020526040902080546001600160a01b0319166001600160a01b0384169081179091558190610fea826108c4565b6001600160a01b03167f8c5be1e5ebec7d5bd14f71427d1e84f3dd0314c0f7b2291e5b200ac8c7c3b92560405160405180910390a45050565b60008061102f836108c4565b9050806001600160a01b0316846001600160a01b0316148061107657506001600160a01b0380821660009081526005602090815260408083209388168352929052205460ff165b80610d7e5750836001600160a01b031661108f846104f3565b6001600160a01b031614949350505050565b826001600160a01b03166110b4826108c4565b6001600160a01b0316146111185760405162461bcd60e51b815260206004820152602560248201527f4552433732313a207472616e736665722066726f6d20696e636f72726563742060448201526437bbb732b960d91b606482015260840161058f565b6001600160a01b03821661117a5760405162461bcd60e51b8152602060048201526024808201527f4552433732313a207472616e7366657220746f20746865207a65726f206164646044820152637265737360e01b606482015260840161058f565b611185600082610fb5565b6001600160a01b03831660009081526003602052604081208054600192906111ae908490611f19565b90915550506001600160a01b03821660009081526003602052604081208054600192906111dc908490611eed565b909155505060008181526002602052604080822080546001600160a01b0319166001600160a01b0386811691821790925591518493918716917fddf252ad1be2c89b69c2b068fc378daa952ba7f163c4a11628f55a4df523b3ef91a4505050565b610bd4828260405180602001604052806000815250611608565b6000828152600260205260409020546001600160a01b03166112d25760405162461bcd60e51b815260206004820152602e60248201527f45524337323155524953746f726167653a2055524920736574206f66206e6f6e60448201526d32bc34b9ba32b73a103a37b5b2b760911b606482015260840161058f565b60008281526006602090815260409091208251610630928401906119d2565b600a54341461134e5760405162461bcd60e51b815260206004820152602360248201527f486f706566756c6c792073656e64696e672074686520636f727265637420707260448201526269636560e81b606482015260840161058f565b600081116113a95760405162461bcd60e51b815260206004820152602260248201527f4d616b652073757265207468652070726963652069736e2774206e6567617469604482015261766560f01b606482015260840161058f565b6040805160a081018252838152306020808301828152338486018181526060860188815260016080880181815260008c8152600b9097529890952096518755925193860180546001600160a01b039586166001600160a01b03199182161790915590516002870180549190951691161790925551600384015592516004909201805492151560ff19909316929092179091556114469190846110a1565b604080513081523360208201529081018290526001606082015282907f9339409317fd01fabff48b703019016f49159bacc801ae872d2ca637d226e4c09060800160405180910390a25050565b816001600160a01b0316836001600160a01b031614156114f55760405162461bcd60e51b815260206004820152601960248201527f4552433732313a20617070726f766520746f2063616c6c657200000000000000604482015260640161058f565b6001600160a01b03838116600081815260056020908152604080832094871680845294825291829020805460ff191686151590811790915591519182527f17307eab39ab6107e8899845ad3d59bd9653f200f220920489ca2b5937696c31910160405180910390a3505050565b61156d8484846110a1565b6115798484848461163b565b610bc35760405162461bcd60e51b815260040161058f90611e3f565b60606115a082610f53565b60006115b760408051602081019091526000815290565b905060008151116115d757604051806020016040528060008152506109e5565b806115e184611748565b6040516020016115f2929190611d72565b6040516020818303038152906040529392505050565b6116128383611862565b61161f600084848461163b565b6106305760405162461bcd60e51b815260040161058f90611e3f565b60006001600160a01b0384163b1561173d57604051630a85bd0160e11b81526001600160a01b0385169063150b7a029061167f903390899088908890600401611da1565b602060405180830381600087803b15801561169957600080fd5b505af19250505080156116c9575060408051601f3d908101601f191682019092526116c691810190611c7c565b60015b611723573d8080156116f7576040519150601f19603f3d011682016040523d82523d6000602084013e6116fc565b606091505b50805161171b5760405162461bcd60e51b815260040161058f90611e3f565b805181602001fd5b6001600160e01b031916630a85bd0160e11b149050610d7e565b506001949350505050565b60608161176c5750506040805180820190915260018152600360fc1b602082015290565b8160005b8115611796578061178081611f97565b915061178f9050600a83611f05565b9150611770565b60008167ffffffffffffffff8111156117bf57634e487b7160e01b600052604160045260246000fd5b6040519080825280601f01601f1916602001820160405280156117e9576020820181803683370190505b5090505b8415610d7e576117fe600183611f19565b915061180b600a86611fb2565b611816906030611eed565b60f81b81838151811061183957634e487b7160e01b600052603260045260246000fd5b60200101906001600160f81b031916908160001a90535061185b600a86611f05565b94506117ed565b6001600160a01b0382166118b85760405162461bcd60e51b815260206004820181905260248201527f4552433732313a206d696e7420746f20746865207a65726f2061646472657373604482015260640161058f565b6000818152600260205260409020546001600160a01b03161561191d5760405162461bcd60e51b815260206004820152601c60248201527f4552433732313a20746f6b656e20616c7265616479206d696e74656400000000604482015260640161058f565b6001600160a01b0382166000908152600360205260408120805460019290611946908490611eed565b909155505060008181526002602052604080822080546001600160a01b0319166001600160a01b03861690811790915590518392907fddf252ad1be2c89b69c2b068fc378daa952ba7f163c4a11628f55a4df523b3ef908290a45050565b6040805160a08101825260008082526020820181905291810182905260608101829052608081019190915290565b8280546119de90611f5c565b90600052602060002090601f016020900481019282611a005760008555611a46565b82601f10611a1957805160ff1916838001178555611a46565b82800160010185558215611a46579182015b82811115611a46578251825591602001919060010190611a2b565b50611a52929150611a56565b5090565b5b80821115611a525760008155600101611a57565b600067ffffffffffffffff80841115611a8657611a86611ff2565b604051601f8501601f19908116603f01168101908282118183101715611aae57611aae611ff2565b81604052809350858152868686011115611ac757600080fd5b858560208301376000602087830101525050509392505050565b80356001600160a01b0381168114611af857600080fd5b919050565b600060208284031215611b0e578081fd5b6109e582611ae1565b60008060408385031215611b29578081fd5b611b3283611ae1565b9150611b4060208401611ae1565b90509250929050565b600080600060608486031215611b5d578081fd5b611b6684611ae1565b9250611b7460208501611ae1565b9150604084013590509250925092565b60008060008060808587031215611b99578081fd5b611ba285611ae1565b9350611bb060208601611ae1565b925060408501359150606085013567ffffffffffffffff811115611bd2578182fd5b8501601f81018713611be2578182fd5b611bf187823560208401611a6b565b91505092959194509250565b60008060408385031215611c0f578182fd5b611c1883611ae1565b915060208301358015158114611c2c578182fd5b809150509250929050565b60008060408385031215611c49578182fd5b611c5283611ae1565b946020939093013593505050565b600060208284031215611c71578081fd5b81356109e581612008565b600060208284031215611c8d578081fd5b81516109e581612008565b60008060408385031215611caa578182fd5b823567ffffffffffffffff811115611cc0578283fd5b8301601f81018513611cd0578283fd5b611cdf85823560208401611a6b565b95602094909401359450505050565b600060208284031215611cff578081fd5b5035919050565b60008151808452611d1e816020860160208601611f30565b601f01601f19169290920160200192915050565b805182526020808201516001600160a01b039081169184019190915260408083015190911690830152606080820151908301526080908101511515910152565b60008351611d84818460208801611f30565b835190830190611d98818360208801611f30565b01949350505050565b6001600160a01b0385811682528416602082015260408101839052608060608201819052600090611dd490830184611d06565b9695505050505050565b6020808252825182820181905260009190848201906040850190845b81811015611e2057611e0d838551611d32565b9284019260a09290920191600101611dfa565b50909695505050505050565b6020815260006109e56020830184611d06565b60208082526032908201527f4552433732313a207472616e7366657220746f206e6f6e20455243373231526560408201527131b2b4bb32b91034b6b83632b6b2b73a32b960711b606082015260800190565b6020808252602e908201527f4552433732313a2063616c6c6572206973206e6f7420746f6b656e206f776e6560408201526d1c881b9bdc88185c1c1c9bdd995960921b606082015260800190565b60a0810161045b8284611d32565b60008219821115611f0057611f00611fc6565b500190565b600082611f1457611f14611fdc565b500490565b600082821015611f2b57611f2b611fc6565b500390565b60005b83811015611f4b578181015183820152602001611f33565b83811115610bc35750506000910152565b600181811c90821680611f7057607f821691505b60208210811415611f9157634e487b7160e01b600052602260045260246000fd5b50919050565b6000600019821415611fab57611fab611fc6565b5060010190565b600082611fc157611fc1611fdc565b500690565b634e487b7160e01b600052601160045260246000fd5b634e487b7160e01b600052601260045260246000fd5b634e487b7160e01b600052604160045260246000fd5b6001600160e01b031981168114610fb257600080fdfea2646970667358221220e071ee4e497ceff28f9284e57127978f795778cc7b6a5c65ec132a8236e3d36664736f6c63430008040033",
  "linkReferences": {},
  "deployedLinkReferences": {}
}