{
  "_format": "hh-sol-artifact-1",
  "contractName": "NFTAuctionplace",
  "sourceName": "contracts/NFTAuctionplace.sol",
  "abi": [
    {
      "inputs": [],
      "stateMutability": "nonpayable",
      "type": "constructor"
    },
    {
      "anonymous": false,
      "inputs": [
        {
          "indexed": true,
          "internalType": "address",
          "name": "owner",
          "type": "address"
        },
        {
          "indexed": true,
          "internalType": "address",
          "name": "approved",
          "type": "address"
        },
        {
          "indexed": true,
          "internalType": "uint256",
          "name": "tokenId",
          "type": "uint256"
        }
      ],
      "name": "Approval",
      "type": "event"
    },
    {
      "anonymous": false,
      "inputs": [
        {
          "indexed": true,
          "internalType": "address",
          "name": "owner",
          "type": "address"
        },
        {
          "indexed": true,
          "internalType": "address",
          "name": "operator",
          "type": "address"
        },
        {
          "indexed": false,
          "internalType": "bool",
          "name": "approved",
          "type": "bool"
        }
      ],
      "name": "ApprovalForAll",
      "type": "event"
    },
    {
      "anonymous": false,
      "inputs": [
        {
          "indexed": true,
          "internalType": "uint256",
          "name": "tokenId",
          "type": "uint256"
        },
        {
          "indexed": false,
          "internalType": "address",
          "name": "owner",
          "type": "address"
        },
        {
          "indexed": false,
          "internalType": "address",
          "name": "seller",
          "type": "address"
        },
        {
          "indexed": false,
          "internalType": "address",
          "name": "highestBidder",
          "type": "address"
        },
        {
          "indexed": false,
          "internalType": "uint256",
          "name": "bidPrice",
          "type": "uint256"
        },
        {
          "indexed": false,
          "internalType": "uint256",
          "name": "bidIncrement",
          "type": "uint256"
        },
        {
          "indexed": false,
          "internalType": "uint256",
          "name": "endTime",
          "type": "uint256"
        },
        {
          "indexed": false,
          "internalType": "uint256",
          "name": "category",
          "type": "uint256"
        },
        {
          "indexed": false,
          "internalType": "bool",
          "name": "currentlyListed",
          "type": "bool"
        }
      ],
      "name": "TokenAuctionedSuccess",
      "type": "event"
    },
    {
      "anonymous": false,
      "inputs": [
        {
          "indexed": true,
          "internalType": "address",
          "name": "from",
          "type": "address"
        },
        {
          "indexed": true,
          "internalType": "address",
          "name": "to",
          "type": "address"
        },
        {
          "indexed": true,
          "internalType": "uint256",
          "name": "tokenId",
          "type": "uint256"
        }
      ],
      "name": "Transfer",
      "type": "event"
    },
    {
      "inputs": [
        {
          "internalType": "uint256",
          "name": "tokenId",
          "type": "uint256"
        }
      ],
      "name": "BidOnToken",
      "outputs": [],
      "stateMutability": "payable",
      "type": "function"
    },
    {
      "inputs": [
        {
          "internalType": "string",
          "name": "tokenURI",
          "type": "string"
        },
        {
          "internalType": "uint256",
          "name": "price",
          "type": "uint256"
        },
        {
          "internalType": "uint256",
          "name": "bidIncrement",
          "type": "uint256"
        },
        {
          "internalType": "uint256",
          "name": "duration",
          "type": "uint256"
        },
        {
          "internalType": "uint256",
          "name": "category",
          "type": "uint256"
        }
      ],
      "name": "StartAuction",
      "outputs": [
        {
          "internalType": "uint256",
          "name": "",
          "type": "uint256"
        }
      ],
      "stateMutability": "payable",
      "type": "function"
    },
    {
      "inputs": [
        {
          "internalType": "uint256",
          "name": "tokenId",
          "type": "uint256"
        }
      ],
      "name": "Unlist",
      "outputs": [],
      "stateMutability": "payable",
      "type": "function"
    },
    {
      "inputs": [
        {
          "internalType": "address",
          "name": "to",
          "type": "address"
        },
        {
          "internalType": "uint256",
          "name": "tokenId",
          "type": "uint256"
        }
      ],
      "name": "approve",
      "outputs": [],
      "stateMutability": "nonpayable",
      "type": "function"
    },
    {
      "inputs": [
        {
          "internalType": "address",
          "name": "owner",
          "type": "address"
        }
      ],
      "name": "balanceOf",
      "outputs": [
        {
          "internalType": "uint256",
          "name": "",
          "type": "uint256"
        }
      ],
      "stateMutability": "view",
      "type": "function"
    },
    {
      "inputs": [],
      "name": "getAllProducts",
      "outputs": [
        {
          "components": [
            {
              "internalType": "uint256",
              "name": "tokenId",
              "type": "uint256"
            },
            {
              "internalType": "address payable",
              "name": "owner",
              "type": "address"
            },
            {
              "internalType": "address payable",
              "name": "seller",
              "type": "address"
            },
            {
              "internalType": "address payable",
              "name": "highestBidder",
              "type": "address"
            },
            {
              "internalType": "uint256",
              "name": "bidPrice",
              "type": "uint256"
            },
            {
              "internalType": "uint256",
              "name": "bidIncrement",
              "type": "uint256"
            },
            {
              "internalType": "uint256",
              "name": "endTime",
              "type": "uint256"
            },
            {
              "internalType": "uint256",
              "name": "category",
              "type": "uint256"
            },
            {
              "internalType": "bool",
              "name": "currentlyListed",
              "type": "bool"
            }
          ],
          "internalType": "struct NFTAuctionplace.AuctionToken[]",
          "name": "",
          "type": "tuple[]"
        }
      ],
      "stateMutability": "view",
      "type": "function"
    },
    {
      "inputs": [
        {
          "internalType": "uint256",
          "name": "tokenId",
          "type": "uint256"
        }
      ],
      "name": "getApproved",
      "outputs": [
        {
          "internalType": "address",
          "name": "",
          "type": "address"
        }
      ],
      "stateMutability": "view",
      "type": "function"
    },
    {
      "inputs": [
        {
          "internalType": "uint256",
          "name": "T_ID",
          "type": "uint256"
        }
      ],
      "name": "getAuctionProductDetails",
      "outputs": [
        {
          "components": [
            {
              "internalType": "uint256",
              "name": "tokenId",
              "type": "uint256"
            },
            {
              "internalType": "address payable",
              "name": "owner",
              "type": "address"
            },
            {
              "internalType": "address payable",
              "name": "seller",
              "type": "address"
            },
            {
              "internalType": "address payable",
              "name": "highestBidder",
              "type": "address"
            },
            {
              "internalType": "uint256",
              "name": "bidPrice",
              "type": "uint256"
            },
            {
              "internalType": "uint256",
              "name": "bidIncrement",
              "type": "uint256"
            },
            {
              "internalType": "uint256",
              "name": "endTime",
              "type": "uint256"
            },
            {
              "internalType": "uint256",
              "name": "category",
              "type": "uint256"
            },
            {
              "internalType": "bool",
              "name": "currentlyListed",
              "type": "bool"
            }
          ],
          "internalType": "struct NFTAuctionplace.AuctionToken[]",
          "name": "",
          "type": "tuple[]"
        }
      ],
      "stateMutability": "view",
      "type": "function"
    },
    {
      "inputs": [
        {
          "internalType": "uint256",
          "name": "categoryNum",
          "type": "uint256"
        }
      ],
      "name": "getCategoryProducts",
      "outputs": [
        {
          "components": [
            {
              "internalType": "uint256",
              "name": "tokenId",
              "type": "uint256"
            },
            {
              "internalType": "address payable",
              "name": "owner",
              "type": "address"
            },
            {
              "internalType": "address payable",
              "name": "seller",
              "type": "address"
            },
            {
              "internalType": "address payable",
              "name": "highestBidder",
              "type": "address"
            },
            {
              "internalType": "uint256",
              "name": "bidPrice",
              "type": "uint256"
            },
            {
              "internalType": "uint256",
              "name": "bidIncrement",
              "type": "uint256"
            },
            {
              "internalType": "uint256",
              "name": "endTime",
              "type": "uint256"
            },
            {
              "internalType": "uint256",
              "name": "category",
              "type": "uint256"
            },
            {
              "internalType": "bool",
              "name": "currentlyListed",
              "type": "bool"
            }
          ],
          "internalType": "struct NFTAuctionplace.AuctionToken[]",
          "name": "",
          "type": "tuple[]"
        }
      ],
      "stateMutability": "view",
      "type": "function"
    },
    {
      "inputs": [],
      "name": "getListPrice",
      "outputs": [
        {
          "internalType": "uint256",
          "name": "",
          "type": "uint256"
        }
      ],
      "stateMutability": "view",
      "type": "function"
    },
    {
      "inputs": [],
      "name": "getMyProducts",
      "outputs": [
        {
          "components": [
            {
              "internalType": "uint256",
              "name": "tokenId",
              "type": "uint256"
            },
            {
              "internalType": "address payable",
              "name": "owner",
              "type": "address"
            },
            {
              "internalType": "address payable",
              "name": "seller",
              "type": "address"
            },
            {
              "internalType": "address payable",
              "name": "highestBidder",
              "type": "address"
            },
            {
              "internalType": "uint256",
              "name": "bidPrice",
              "type": "uint256"
            },
            {
              "internalType": "uint256",
              "name": "bidIncrement",
              "type": "uint256"
            },
            {
              "internalType": "uint256",
              "name": "endTime",
              "type": "uint256"
            },
            {
              "internalType": "uint256",
              "name": "category",
              "type": "uint256"
            },
            {
              "internalType": "bool",
              "name": "currentlyListed",
              "type": "bool"
            }
          ],
          "internalType": "struct NFTAuctionplace.AuctionToken[]",
          "name": "",
          "type": "tuple[]"
        }
      ],
      "stateMutability": "view",
      "type": "function"
    },
    {
      "inputs": [],
      "name": "getUnsoldProducts",
      "outputs": [
        {
          "components": [
            {
              "internalType": "uint256",
              "name": "tokenId",
              "type": "uint256"
            },
            {
              "internalType": "address payable",
              "name": "owner",
              "type": "address"
            },
            {
              "internalType": "address payable",
              "name": "seller",
              "type": "address"
            },
            {
              "internalType": "address payable",
              "name": "highestBidder",
              "type": "address"
            },
            {
              "internalType": "uint256",
              "name": "bidPrice",
              "type": "uint256"
            },
            {
              "internalType": "uint256",
              "name": "bidIncrement",
              "type": "uint256"
            },
            {
              "internalType": "uint256",
              "name": "endTime",
              "type": "uint256"
            },
            {
              "internalType": "uint256",
              "name": "category",
              "type": "uint256"
            },
            {
              "internalType": "bool",
              "name": "currentlyListed",
              "type": "bool"
            }
          ],
          "internalType": "struct NFTAuctionplace.AuctionToken[]",
          "name": "",
          "type": "tuple[]"
        }
      ],
      "stateMutability": "view",
      "type": "function"
    },
    {
      "inputs": [
        {
          "internalType": "address",
          "name": "owner",
          "type": "address"
        },
        {
          "internalType": "address",
          "name": "operator",
          "type": "address"
        }
      ],
      "name": "isApprovedForAll",
      "outputs": [
        {
          "internalType": "bool",
          "name": "",
          "type": "bool"
        }
      ],
      "stateMutability": "view",
      "type": "function"
    },
    {
      "inputs": [],
      "name": "name",
      "outputs": [
        {
          "internalType": "string",
          "name": "",
          "type": "string"
        }
      ],
      "stateMutability": "view",
      "type": "function"
    },
    {
      "inputs": [
        {
          "internalType": "uint256",
          "name": "tokenId",
          "type": "uint256"
        }
      ],
      "name": "ownerOf",
      "outputs": [
        {
          "internalType": "address",
          "name": "",
          "type": "address"
        }
      ],
      "stateMutability": "view",
      "type": "function"
    },
    {
      "inputs": [
        {
          "internalType": "address",
          "name": "from",
          "type": "address"
        },
        {
          "internalType": "address",
          "name": "to",
          "type": "address"
        },
        {
          "internalType": "uint256",
          "name": "tokenId",
          "type": "uint256"
        }
      ],
      "name": "safeTransferFrom",
      "outputs": [],
      "stateMutability": "nonpayable",
      "type": "function"
    },
    {
      "inputs": [
        {
          "internalType": "address",
          "name": "from",
          "type": "address"
        },
        {
          "internalType": "address",
          "name": "to",
          "type": "address"
        },
        {
          "internalType": "uint256",
          "name": "tokenId",
          "type": "uint256"
        },
        {
          "internalType": "bytes",
          "name": "data",
          "type": "bytes"
        }
      ],
      "name": "safeTransferFrom",
      "outputs": [],
      "stateMutability": "nonpayable",
      "type": "function"
    },
    {
      "inputs": [
        {
          "internalType": "address",
          "name": "operator",
          "type": "address"
        },
        {
          "internalType": "bool",
          "name": "approved",
          "type": "bool"
        }
      ],
      "name": "setApprovalForAll",
      "outputs": [],
      "stateMutability": "nonpayable",
      "type": "function"
    },
    {
      "inputs": [
        {
          "internalType": "bytes4",
          "name": "interfaceId",
          "type": "bytes4"
        }
      ],
      "name": "supportsInterface",
      "outputs": [
        {
          "internalType": "bool",
          "name": "",
          "type": "bool"
        }
      ],
      "stateMutability": "view",
      "type": "function"
    },
    {
      "inputs": [],
      "name": "symbol",
      "outputs": [
        {
          "internalType": "string",
          "name": "",
          "type": "string"
        }
      ],
      "stateMutability": "view",
      "type": "function"
    },
    {
      "inputs": [
        {
          "internalType": "uint256",
          "name": "tokenId",
          "type": "uint256"
        }
      ],
      "name": "tokenURI",
      "outputs": [
        {
          "internalType": "string",
          "name": "",
          "type": "string"
        }
      ],
      "stateMutability": "view",
      "type": "function"
    },
    {
      "inputs": [
        {
          "internalType": "address",
          "name": "from",
          "type": "address"
        },
        {
          "internalType": "address",
          "name": "to",
          "type": "address"
        },
        {
          "internalType": "uint256",
          "name": "tokenId",
          "type": "uint256"
        }
      ],
      "name": "transferFrom",
      "outputs": [],
      "stateMutability": "nonpayable",
      "type": "function"
    },
    {
      "inputs": [
        {
          "internalType": "uint256",
          "name": "_listPrice",
          "type": "uint256"
        }
      ],
      "name": "updateListPrice",
      "outputs": [],
      "stateMutability": "payable",
      "type": "function"
    }
  ],
  "bytecode": "0x608060405260006009553480156200001657600080fd5b50604080518082018252600f81526e4e465441756374696f6e706c61636560881b6020808301918252835180850190945260048452634e46544160e01b9084015281519192916200006a916000916200009b565b508051620000809060019060208401906200009b565b5050600880546001600160a01b03191633179055506200017e565b828054620000a99062000141565b90600052602060002090601f016020900481019282620000cd576000855562000118565b82601f10620000e857805160ff191683800117855562000118565b8280016001018555821562000118579182015b8281111562000118578251825591602001919060010190620000fb565b50620001269291506200012a565b5090565b5b808211156200012657600081556001016200012b565b600181811c908216806200015657607f821691505b602082108114156200017857634e487b7160e01b600052602260045260246000fd5b50919050565b6127e6806200018e6000396000f3fe6080604052600436106101405760003560e01c806370a08231116100b6578063c322579c1161006f578063c322579c14610388578063c87b56dd1461039b578063d4311a57146103bb578063e985e9c5146103d0578063f7b14a3c14610419578063fdca4ca31461042c57600080fd5b806370a08231146102d35780638d43480f146102f357806395d89b4114610313578063a22cb46514610328578063b88d4fde14610348578063bbfeb85a1461036857600080fd5b80631ab07bb8116101085780631ab07bb81461021857806323b872dd1461024157806342842e0e146102615780634b85d43b146102815780636352211e1461029457806368f1945f146102b457600080fd5b806301ffc9a71461014557806302ee3a521461017a57806306fdde031461019c578063081812fc146101be578063095ea7b3146101f6575b600080fd5b34801561015157600080fd5b506101656101603660046123b9565b610441565b60405190151581526020015b60405180910390f35b34801561018657600080fd5b5061018f610493565b604051610171919061250f565b3480156101a857600080fd5b506101b1610604565b60405161017191906125cc565b3480156101ca57600080fd5b506101de6101d936600461245f565b610696565b6040516001600160a01b039091168152602001610171565b34801561020257600080fd5b50610216610211366004612390565b6106bd565b005b61021661022636600461245f565b6000908152600a60205260409020600801805460ff19169055565b34801561024d57600080fd5b5061021661025c3660046122a2565b6107d8565b34801561026d57600080fd5b5061021661027c3660046122a2565b610809565b61021661028f36600461245f565b610824565b3480156102a057600080fd5b506101de6102af36600461245f565b610a06565b3480156102c057600080fd5b506009545b604051908152602001610171565b3480156102df57600080fd5b506102c56102ee366004612256565b610a66565b3480156102ff57600080fd5b5061018f61030e36600461245f565b610aec565b34801561031f57600080fd5b506101b1610da1565b34801561033457600080fd5b50610216610343366004612356565b610db0565b34801561035457600080fd5b506102166103633660046122dd565b610dbf565b34801561037457600080fd5b5061018f61038336600461245f565b610df7565b61021661039636600461245f565b610f56565b3480156103a757600080fd5b506101b16103b636600461245f565b610fc1565b3480156103c757600080fd5b5061018f6110d2565b3480156103dc57600080fd5b506101656103eb366004612270565b6001600160a01b03918216600090815260056020908152604080832093909416825291909152205460ff1690565b6102c56104273660046123f1565b6112d0565b34801561043857600080fd5b5061018f6115ae565b60006001600160e01b031982166380ac58cd60e01b148061047257506001600160e01b03198216635b5e139f60e01b145b8061048d57506301ffc9a760e01b6001600160e01b03198316145b92915050565b606060006104a060075490565b905060008167ffffffffffffffff8111156104cb57634e487b7160e01b600052604160045260246000fd5b60405190808252806020026020018201604052801561050457816020015b6104f16120c2565b8152602001906001900390816104e95790505b509050600080805b848110156105fa5761051f81600161267f565b6000818152600a60209081526040918290208251610120810184528154815260018201546001600160a01b039081169382019390935260028201548316938101939093526003810154909116606083015260048101546080830152600581015460a0830152600681015460c0830152600781015460e0830152600881015460ff1615156101008301528651929450918690869081106105ce57634e487b7160e01b600052603260045260246000fd5b60209081029190910101526105e460018561267f565b93505080806105f290612729565b91505061050c565b5091949350505050565b606060008054610613906126ee565b80601f016020809104026020016040519081016040528092919081815260200182805461063f906126ee565b801561068c5780601f106106615761010080835404028352916020019161068c565b820191906000526020600020905b81548152906001019060200180831161066f57829003601f168201915b5050505050905090565b60006106a182611812565b506000908152600460205260409020546001600160a01b031690565b60006106c882610a06565b9050806001600160a01b0316836001600160a01b0316141561073b5760405162461bcd60e51b815260206004820152602160248201527f4552433732313a20617070726f76616c20746f2063757272656e74206f776e656044820152603960f91b60648201526084015b60405180910390fd5b336001600160a01b0382161480610757575061075781336103eb565b6107c95760405162461bcd60e51b815260206004820152603e60248201527f4552433732313a20617070726f76652063616c6c6572206973206e6f7420746f60448201527f6b656e206f776e6572206e6f7220617070726f76656420666f7220616c6c00006064820152608401610732565b6107d38383611874565b505050565b6107e233826118e2565b6107fe5760405162461bcd60e51b815260040161073290612631565b6107d3838383611960565b6107d383838360405180602001604052806000815250610dbf565b6000818152600a602052604090206004810154600582015460028301546003840154600890940154929391926001600160a01b03918216929091169060ff1680151560011415610903576000868152600a602052604081206001810180546001600160a01b0319166001600160a01b038616179055600601556108a8308388611960565b6108b230876106bd565b816001600160a01b0316836001600160a01b031614610903576040516001600160a01b0383169086156108fc029087906000818181858888f19350505050158015610901573d6000803e3d6000fd5b505b506001610910848661267f565b341015610987576040805162461bcd60e51b81526020600482015260248101919091527f426964206d7573742062652061746c656173742062696420496e6372656d656e60448201527f742067726561746572207468616e2063757272656e74206269642070726963656064820152608401610732565b816001600160a01b0316836001600160a01b0316146109d8576040516001600160a01b0383169086156108fc029087906000818181858888f193505050501580156109d6573d6000803e3d6000fd5b505b50505060009283525050600a6020526040902034600482015560030180546001600160a01b03191633179055565b6000818152600260205260408120546001600160a01b03168061048d5760405162461bcd60e51b8152602060048201526018602482015277115490cdcc8c4e881a5b9d985b1a59081d1bdad95b88125160421b6044820152606401610732565b60006001600160a01b038216610ad05760405162461bcd60e51b815260206004820152602960248201527f4552433732313a2061646472657373207a65726f206973206e6f7420612076616044820152683634b21037bbb732b960b91b6064820152608401610732565b506001600160a01b031660009081526003602052604090205490565b60606000610af960075490565b905060008080805b84811015610bb457600a6000610b1883600161267f565b815260208101919091526040016000206008015460ff1615156001148015610b5f575086600a6000610b4b84600161267f565b815260200190815260200160002060070154145b15610ba257600a6000610b7383600161267f565b815260208101919091526040016000206008015460ff16151560011415610ba257610b9f60018561267f565b93505b80610bac81612729565b915050610b01565b5060008367ffffffffffffffff811115610bde57634e487b7160e01b600052604160045260246000fd5b604051908082528060200260200182016040528015610c1757816020015b610c046120c2565b815260200190600190039081610bfc5790505b50905060005b85811015610d9657600a6000610c3483600161267f565b815260208101919091526040016000206008015460ff1615156001148015610c7b575087600a6000610c6784600161267f565b815260200190815260200160002060070154145b15610d8457600a6000610c8f83600161267f565b815260208101919091526040016000206008015460ff16151560011415610d8457610cbb81600161267f565b6000818152600a60209081526040918290208251610120810184528154815260018201546001600160a01b039081169382019390935260028201548316938101939093526003810154909116606083015260048101546080830152600581015460a0830152600681015460c0830152600781015460e0830152600881015460ff161515610100830152845192955091849087908110610d6a57634e487b7160e01b600052603260045260246000fd5b6020908102919091010152610d8060018661267f565b9450505b80610d8e81612729565b915050610c1d565b509695505050505050565b606060018054610613906126ee565b610dbb338383611afc565b5050565b610dc933836118e2565b610de55760405162461bcd60e51b815260040161073290612631565b610df184848484611bcb565b50505050565b60606000610e0460075490565b60408051600180825281830190925291925060009190816020015b610e276120c2565b815260200190600190039081610e1f57905050905060005b82811015610f4e5784600a6000610e5784600161267f565b8152602001908152602001600020600001541415610f3c576000600a81610e7f84600161267f565b8152602080820192909252604090810160009081208251610120810184528154815260018201546001600160a01b039081169582019590955260028201548516938101939093526003810154909316606083015260048301546080830152600583015460a0830152600683015460c0830152600783015460e0830152600883015460ff16151561010083015285519293509091859190610f2f57634e487b7160e01b600052603260045260246000fd5b6020026020010181905250505b80610f4681612729565b915050610e3f565b509392505050565b6008546001600160a01b03163314610fbc5760405162461bcd60e51b815260206004820152602360248201527f4f6e6c79206f776e65722063616e20757064617465206c697374696e6720707260448201526269636560e81b6064820152608401610732565b600955565b6060610fcc82611812565b60008281526006602052604081208054610fe5906126ee565b80601f0160208091040260200160405190810160405280929190818152602001828054611011906126ee565b801561105e5780601f106110335761010080835404028352916020019161105e565b820191906000526020600020905b81548152906001019060200180831161104157829003601f168201915b50505050509050600061107c60408051602081019091526000815290565b905080516000141561108f575092915050565b8151156110c15780826040516020016110a99291906124a3565b60405160208183030381529060405292505050919050565b6110ca84611bfe565b949350505050565b606060006110df60075490565b905060008080805b8481101561113f57600a60006110fe83600161267f565b815260208101919091526040016000206008015460ff1615156001141561112d5761112a60018561267f565b93505b8061113781612729565b9150506110e7565b5060008367ffffffffffffffff81111561116957634e487b7160e01b600052604160045260246000fd5b6040519080825280602002602001820160405280156111a257816020015b61118f6120c2565b8152602001906001900390816111875790505b50905060005b858110156112c657600a60006111bf83600161267f565b815260208101919091526040016000206008015460ff161515600114156112b4576111eb81600161267f565b6000818152600a60209081526040918290208251610120810184528154815260018201546001600160a01b039081169382019390935260028201548316938101939093526003810154909116606083015260048101546080830152600581015460a0830152600681015460c0830152600781015460e0830152600881015460ff16151561010083015284519295509184908790811061129a57634e487b7160e01b600052603260045260246000fd5b60209081029190910101526112b060018661267f565b9450505b806112be81612729565b9150506111a8565b5095945050505050565b600060095434146113235760405162461bcd60e51b815260206004820152601760248201527f4d7573742073656e64206c697374696e672070726963650000000000000000006044820152606401610732565b6611c37937e0800085116113975760405162461bcd60e51b815260206004820152603560248201527f4d75737420736574207072696365206f662061756374696f6e206974656d20676044820152740e4cac2e8cae440e8d0c2dc40605c60606a408aa89605b1b6064820152608401610732565b600083116114005760405162461bcd60e51b815260206004820152603060248201527f4d75737420736574206475726174696f6e206f662061756374696f6e2067726560448201526f61746572207468616e2030206461797360801b6064820152608401610732565b61140e600780546001019055565b600061141960075490565b90506114253382611c72565b61142f8188611c8c565b60408051610120810182528281523060208083019182523383850181815260608501918252608085018c815260a086018c815260c087018c815260e088018c815260016101008a0181815260008d8152600a9099528b89209a518b559851908a0180546001600160a01b03199081166001600160a01b0393841617909155955160028b0180548816918316919091179055955160038a018054909616908716179094559151600488015551600587015551600686015551600785015591516008938401805460ff1916911515919091179055915460095493519116926108fc81150292909190818181858888f19350505050158015611532573d6000803e3d6000fd5b5061153e333083611960565b60408051308152336020820181905281830152606081018890526080810187905260a0810186905260c08101859052600160e0820152905182917f6d7ab49978c12b61acf6ef87064e2bea09533ef82465e5469c61a7b0c1a65be491908190036101000190a29695505050505050565b606060006115bb60075490565b905060008080805b848110156116535733600a60006115db84600161267f565b81526020810191909152604001600020600101546001600160a01b0316148061162e575033600a600061160f84600161267f565b81526020810191909152604001600020600201546001600160a01b0316145b156116415761163e60018561267f565b93505b8061164b81612729565b9150506115c3565b5060008367ffffffffffffffff81111561167d57634e487b7160e01b600052604160045260246000fd5b6040519080825280602002602001820160405280156116b657816020015b6116a36120c2565b81526020019060019003908161169b5790505b50905060005b858110156112c65733600a60006116d484600161267f565b81526020810191909152604001600020600101546001600160a01b03161480611727575033600a600061170884600161267f565b81526020810191909152604001600020600201546001600160a01b0316145b156118005761173781600161267f565b6000818152600a60209081526040918290208251610120810184528154815260018201546001600160a01b039081169382019390935260028201548316938101939093526003810154909116606083015260048101546080830152600581015460a0830152600681015460c0830152600781015460e0830152600881015460ff1615156101008301528451929550918490879081106117e657634e487b7160e01b600052603260045260246000fd5b60209081029190910101526117fc60018661267f565b9450505b8061180a81612729565b9150506116bc565b6000818152600260205260409020546001600160a01b03166118715760405162461bcd60e51b8152602060048201526018602482015277115490cdcc8c4e881a5b9d985b1a59081d1bdad95b88125160421b6044820152606401610732565b50565b600081815260046020526040902080546001600160a01b0319166001600160a01b03841690811790915581906118a982610a06565b6001600160a01b03167f8c5be1e5ebec7d5bd14f71427d1e84f3dd0314c0f7b2291e5b200ac8c7c3b92560405160405180910390a45050565b6000806118ee83610a06565b9050806001600160a01b0316846001600160a01b0316148061193557506001600160a01b0380821660009081526005602090815260408083209388168352929052205460ff165b806110ca5750836001600160a01b031661194e84610696565b6001600160a01b031614949350505050565b826001600160a01b031661197382610a06565b6001600160a01b0316146119d75760405162461bcd60e51b815260206004820152602560248201527f4552433732313a207472616e736665722066726f6d20696e636f72726563742060448201526437bbb732b960d91b6064820152608401610732565b6001600160a01b038216611a395760405162461bcd60e51b8152602060048201526024808201527f4552433732313a207472616e7366657220746f20746865207a65726f206164646044820152637265737360e01b6064820152608401610732565b611a44600082611874565b6001600160a01b0383166000908152600360205260408120805460019290611a6d9084906126ab565b90915550506001600160a01b0382166000908152600360205260408120805460019290611a9b90849061267f565b909155505060008181526002602052604080822080546001600160a01b0319166001600160a01b0386811691821790925591518493918716917fddf252ad1be2c89b69c2b068fc378daa952ba7f163c4a11628f55a4df523b3ef91a4505050565b816001600160a01b0316836001600160a01b03161415611b5e5760405162461bcd60e51b815260206004820152601960248201527f4552433732313a20617070726f766520746f2063616c6c6572000000000000006044820152606401610732565b6001600160a01b03838116600081815260056020908152604080832094871680845294825291829020805460ff191686151590811790915591519182527f17307eab39ab6107e8899845ad3d59bd9653f200f220920489ca2b5937696c31910160405180910390a3505050565b611bd6848484611960565b611be284848484611d26565b610df15760405162461bcd60e51b8152600401610732906125df565b6060611c0982611812565b6000611c2060408051602081019091526000815290565b90506000815111611c405760405180602001604052806000815250611c6b565b80611c4a84611e33565b604051602001611c5b9291906124a3565b6040516020818303038152906040525b9392505050565b610dbb828260405180602001604052806000815250611f4d565b6000828152600260205260409020546001600160a01b0316611d075760405162461bcd60e51b815260206004820152602e60248201527f45524337323155524953746f726167653a2055524920736574206f66206e6f6e60448201526d32bc34b9ba32b73a103a37b5b2b760911b6064820152608401610732565b600082815260066020908152604090912082516107d39284019061212b565b60006001600160a01b0384163b15611e2857604051630a85bd0160e11b81526001600160a01b0385169063150b7a0290611d6a9033908990889088906004016124d2565b602060405180830381600087803b158015611d8457600080fd5b505af1925050508015611db4575060408051601f3d908101601f19168201909252611db1918101906123d5565b60015b611e0e573d808015611de2576040519150601f19603f3d011682016040523d82523d6000602084013e611de7565b606091505b508051611e065760405162461bcd60e51b8152600401610732906125df565b805181602001fd5b6001600160e01b031916630a85bd0160e11b1490506110ca565b506001949350505050565b606081611e575750506040805180820190915260018152600360fc1b602082015290565b8160005b8115611e815780611e6b81612729565b9150611e7a9050600a83612697565b9150611e5b565b60008167ffffffffffffffff811115611eaa57634e487b7160e01b600052604160045260246000fd5b6040519080825280601f01601f191660200182016040528015611ed4576020820181803683370190505b5090505b84156110ca57611ee96001836126ab565b9150611ef6600a86612744565b611f0190603061267f565b60f81b818381518110611f2457634e487b7160e01b600052603260045260246000fd5b60200101906001600160f81b031916908160001a905350611f46600a86612697565b9450611ed8565b611f578383611f80565b611f646000848484611d26565b6107d35760405162461bcd60e51b8152600401610732906125df565b6001600160a01b038216611fd65760405162461bcd60e51b815260206004820181905260248201527f4552433732313a206d696e7420746f20746865207a65726f20616464726573736044820152606401610732565b6000818152600260205260409020546001600160a01b03161561203b5760405162461bcd60e51b815260206004820152601c60248201527f4552433732313a20746f6b656e20616c7265616479206d696e746564000000006044820152606401610732565b6001600160a01b038216600090815260036020526040812080546001929061206490849061267f565b909155505060008181526002602052604080822080546001600160a01b0319166001600160a01b03861690811790915590518392907fddf252ad1be2c89b69c2b068fc378daa952ba7f163c4a11628f55a4df523b3ef908290a45050565b6040518061012001604052806000815260200160006001600160a01b0316815260200160006001600160a01b0316815260200160006001600160a01b03168152602001600081526020016000815260200160008152602001600081526020016000151581525090565b828054612137906126ee565b90600052602060002090601f016020900481019282612159576000855561219f565b82601f1061217257805160ff191683800117855561219f565b8280016001018555821561219f579182015b8281111561219f578251825591602001919060010190612184565b506121ab9291506121af565b5090565b5b808211156121ab57600081556001016121b0565b600067ffffffffffffffff808411156121df576121df612784565b604051601f8501601f19908116603f0116810190828211818310171561220757612207612784565b8160405280935085815286868601111561222057600080fd5b858560208301376000602087830101525050509392505050565b80356001600160a01b038116811461225157600080fd5b919050565b600060208284031215612267578081fd5b611c6b8261223a565b60008060408385031215612282578081fd5b61228b8361223a565b91506122996020840161223a565b90509250929050565b6000806000606084860312156122b6578081fd5b6122bf8461223a565b92506122cd6020850161223a565b9150604084013590509250925092565b600080600080608085870312156122f2578081fd5b6122fb8561223a565b93506123096020860161223a565b925060408501359150606085013567ffffffffffffffff81111561232b578182fd5b8501601f8101871361233b578182fd5b61234a878235602084016121c4565b91505092959194509250565b60008060408385031215612368578182fd5b6123718361223a565b915060208301358015158114612385578182fd5b809150509250929050565b600080604083850312156123a2578182fd5b6123ab8361223a565b946020939093013593505050565b6000602082840312156123ca578081fd5b8135611c6b8161279a565b6000602082840312156123e6578081fd5b8151611c6b8161279a565b600080600080600060a08688031215612408578081fd5b853567ffffffffffffffff81111561241e578182fd5b8601601f8101881361242e578182fd5b61243d888235602084016121c4565b9860208801359850604088013597606081013597506080013595509350505050565b600060208284031215612470578081fd5b5035919050565b6000815180845261248f8160208601602086016126c2565b601f01601f19169290920160200192915050565b600083516124b58184602088016126c2565b8351908301906124c98183602088016126c2565b01949350505050565b6001600160a01b038581168252841660208201526040810183905260806060820181905260009061250590830184612477565b9695505050505050565b602080825282518282018190526000919060409081850190868401855b828110156125bf57815180518552868101516001600160a01b03168786015285810151612563878701826001600160a01b03169052565b506060818101516001600160a01b0316908601526080808201519086015260a0808201519086015260c0808201519086015260e0808201519086015261010090810151151590850152610120909301929085019060010161252c565b5091979650505050505050565b602081526000611c6b6020830184612477565b60208082526032908201527f4552433732313a207472616e7366657220746f206e6f6e20455243373231526560408201527131b2b4bb32b91034b6b83632b6b2b73a32b960711b606082015260800190565b6020808252602e908201527f4552433732313a2063616c6c6572206973206e6f7420746f6b656e206f776e6560408201526d1c881b9bdc88185c1c1c9bdd995960921b606082015260800190565b6000821982111561269257612692612758565b500190565b6000826126a6576126a661276e565b500490565b6000828210156126bd576126bd612758565b500390565b60005b838110156126dd5781810151838201526020016126c5565b83811115610df15750506000910152565b600181811c9082168061270257607f821691505b6020821081141561272357634e487b7160e01b600052602260045260246000fd5b50919050565b600060001982141561273d5761273d612758565b5060010190565b6000826127535761275361276e565b500690565b634e487b7160e01b600052601160045260246000fd5b634e487b7160e01b600052601260045260246000fd5b634e487b7160e01b600052604160045260246000fd5b6001600160e01b03198116811461187157600080fdfea26469706673582212206b0c3688b0ce652e23795dd76087ad4f53db5007ca8c7b0c6c3a2cdff206b2a564736f6c63430008040033",
  "linkReferences": {},
  "deployedLinkReferences": {}
}