{
  "_format": "hh-sol-artifact-1",
  "contractName": "NFTAuctionplace",
  "sourceName": "contracts/NFTAuctionplace.sol",
  "abi": [
    {
      "inputs": [],
      "stateMutability": "nonpayable",
      "type": "constructor"
    },
    {
      "anonymous": false,
      "inputs": [
        {
          "indexed": true,
          "internalType": "address",
          "name": "owner",
          "type": "address"
        },
        {
          "indexed": true,
          "internalType": "address",
          "name": "approved",
          "type": "address"
        },
        {
          "indexed": true,
          "internalType": "uint256",
          "name": "tokenId",
          "type": "uint256"
        }
      ],
      "name": "Approval",
      "type": "event"
    },
    {
      "anonymous": false,
      "inputs": [
        {
          "indexed": true,
          "internalType": "address",
          "name": "owner",
          "type": "address"
        },
        {
          "indexed": true,
          "internalType": "address",
          "name": "operator",
          "type": "address"
        },
        {
          "indexed": false,
          "internalType": "bool",
          "name": "approved",
          "type": "bool"
        }
      ],
      "name": "ApprovalForAll",
      "type": "event"
    },
    {
      "anonymous": false,
      "inputs": [
        {
          "indexed": true,
          "internalType": "uint256",
          "name": "tokenId",
          "type": "uint256"
        },
        {
          "indexed": false,
          "internalType": "address",
          "name": "owner",
          "type": "address"
        },
        {
          "indexed": false,
          "internalType": "address",
          "name": "seller",
          "type": "address"
        },
        {
          "indexed": false,
          "internalType": "address",
          "name": "highestBidder",
          "type": "address"
        },
        {
          "indexed": false,
          "internalType": "uint256",
          "name": "bidPrice",
          "type": "uint256"
        },
        {
          "indexed": false,
          "internalType": "uint256",
          "name": "bidIncrement",
          "type": "uint256"
        },
        {
          "indexed": false,
          "internalType": "uint256",
          "name": "endTime",
          "type": "uint256"
        },
        {
          "indexed": false,
          "internalType": "uint256",
          "name": "category",
          "type": "uint256"
        },
        {
          "indexed": false,
          "internalType": "bool",
          "name": "currentlyListed",
          "type": "bool"
        }
      ],
      "name": "TokenAuctionedSuccess",
      "type": "event"
    },
    {
      "anonymous": false,
      "inputs": [
        {
          "indexed": true,
          "internalType": "address",
          "name": "from",
          "type": "address"
        },
        {
          "indexed": true,
          "internalType": "address",
          "name": "to",
          "type": "address"
        },
        {
          "indexed": true,
          "internalType": "uint256",
          "name": "tokenId",
          "type": "uint256"
        }
      ],
      "name": "Transfer",
      "type": "event"
    },
    {
      "inputs": [
        {
          "internalType": "uint256",
          "name": "tokenId",
          "type": "uint256"
        }
      ],
      "name": "BidOnToken",
      "outputs": [],
      "stateMutability": "payable",
      "type": "function"
    },
    {
      "inputs": [
        {
          "internalType": "string",
          "name": "tokenURI",
          "type": "string"
        },
        {
          "internalType": "uint256",
          "name": "price",
          "type": "uint256"
        },
        {
          "internalType": "uint256",
          "name": "bidIncrement",
          "type": "uint256"
        },
        {
          "internalType": "uint256",
          "name": "durationInSeconds",
          "type": "uint256"
        },
        {
          "internalType": "uint256",
          "name": "category",
          "type": "uint256"
        }
      ],
      "name": "StartAuction",
      "outputs": [
        {
          "internalType": "uint256",
          "name": "",
          "type": "uint256"
        }
      ],
      "stateMutability": "payable",
      "type": "function"
    },
    {
      "inputs": [
        {
          "internalType": "address",
          "name": "to",
          "type": "address"
        },
        {
          "internalType": "uint256",
          "name": "tokenId",
          "type": "uint256"
        }
      ],
      "name": "approve",
      "outputs": [],
      "stateMutability": "nonpayable",
      "type": "function"
    },
    {
      "inputs": [
        {
          "internalType": "address",
          "name": "owner",
          "type": "address"
        }
      ],
      "name": "balanceOf",
      "outputs": [
        {
          "internalType": "uint256",
          "name": "",
          "type": "uint256"
        }
      ],
      "stateMutability": "view",
      "type": "function"
    },
    {
      "inputs": [],
      "name": "getAllProducts",
      "outputs": [
        {
          "components": [
            {
              "internalType": "uint256",
              "name": "tokenId",
              "type": "uint256"
            },
            {
              "internalType": "address payable",
              "name": "owner",
              "type": "address"
            },
            {
              "internalType": "address payable",
              "name": "seller",
              "type": "address"
            },
            {
              "internalType": "address payable",
              "name": "highestBidder",
              "type": "address"
            },
            {
              "internalType": "uint256",
              "name": "bidPrice",
              "type": "uint256"
            },
            {
              "internalType": "uint256",
              "name": "bidIncrement",
              "type": "uint256"
            },
            {
              "internalType": "uint256",
              "name": "endTime",
              "type": "uint256"
            },
            {
              "internalType": "uint256",
              "name": "category",
              "type": "uint256"
            },
            {
              "internalType": "bool",
              "name": "currentlyListed",
              "type": "bool"
            }
          ],
          "internalType": "struct NFTAuctionplace.AuctionToken[]",
          "name": "",
          "type": "tuple[]"
        }
      ],
      "stateMutability": "view",
      "type": "function"
    },
    {
      "inputs": [
        {
          "internalType": "uint256",
          "name": "tokenId",
          "type": "uint256"
        }
      ],
      "name": "getApproved",
      "outputs": [
        {
          "internalType": "address",
          "name": "",
          "type": "address"
        }
      ],
      "stateMutability": "view",
      "type": "function"
    },
    {
      "inputs": [
        {
          "internalType": "uint256",
          "name": "categoryNum",
          "type": "uint256"
        }
      ],
      "name": "getCategoryProducts",
      "outputs": [
        {
          "components": [
            {
              "internalType": "uint256",
              "name": "tokenId",
              "type": "uint256"
            },
            {
              "internalType": "address payable",
              "name": "owner",
              "type": "address"
            },
            {
              "internalType": "address payable",
              "name": "seller",
              "type": "address"
            },
            {
              "internalType": "address payable",
              "name": "highestBidder",
              "type": "address"
            },
            {
              "internalType": "uint256",
              "name": "bidPrice",
              "type": "uint256"
            },
            {
              "internalType": "uint256",
              "name": "bidIncrement",
              "type": "uint256"
            },
            {
              "internalType": "uint256",
              "name": "endTime",
              "type": "uint256"
            },
            {
              "internalType": "uint256",
              "name": "category",
              "type": "uint256"
            },
            {
              "internalType": "bool",
              "name": "currentlyListed",
              "type": "bool"
            }
          ],
          "internalType": "struct NFTAuctionplace.AuctionToken[]",
          "name": "",
          "type": "tuple[]"
        }
      ],
      "stateMutability": "view",
      "type": "function"
    },
    {
      "inputs": [],
      "name": "getListPrice",
      "outputs": [
        {
          "internalType": "uint256",
          "name": "",
          "type": "uint256"
        }
      ],
      "stateMutability": "view",
      "type": "function"
    },
    {
      "inputs": [],
      "name": "getMyProducts",
      "outputs": [
        {
          "components": [
            {
              "internalType": "uint256",
              "name": "tokenId",
              "type": "uint256"
            },
            {
              "internalType": "address payable",
              "name": "owner",
              "type": "address"
            },
            {
              "internalType": "address payable",
              "name": "seller",
              "type": "address"
            },
            {
              "internalType": "address payable",
              "name": "highestBidder",
              "type": "address"
            },
            {
              "internalType": "uint256",
              "name": "bidPrice",
              "type": "uint256"
            },
            {
              "internalType": "uint256",
              "name": "bidIncrement",
              "type": "uint256"
            },
            {
              "internalType": "uint256",
              "name": "endTime",
              "type": "uint256"
            },
            {
              "internalType": "uint256",
              "name": "category",
              "type": "uint256"
            },
            {
              "internalType": "bool",
              "name": "currentlyListed",
              "type": "bool"
            }
          ],
          "internalType": "struct NFTAuctionplace.AuctionToken[]",
          "name": "",
          "type": "tuple[]"
        }
      ],
      "stateMutability": "view",
      "type": "function"
    },
    {
      "inputs": [],
      "name": "getUnsoldProducts",
      "outputs": [
        {
          "components": [
            {
              "internalType": "uint256",
              "name": "tokenId",
              "type": "uint256"
            },
            {
              "internalType": "address payable",
              "name": "owner",
              "type": "address"
            },
            {
              "internalType": "address payable",
              "name": "seller",
              "type": "address"
            },
            {
              "internalType": "address payable",
              "name": "highestBidder",
              "type": "address"
            },
            {
              "internalType": "uint256",
              "name": "bidPrice",
              "type": "uint256"
            },
            {
              "internalType": "uint256",
              "name": "bidIncrement",
              "type": "uint256"
            },
            {
              "internalType": "uint256",
              "name": "endTime",
              "type": "uint256"
            },
            {
              "internalType": "uint256",
              "name": "category",
              "type": "uint256"
            },
            {
              "internalType": "bool",
              "name": "currentlyListed",
              "type": "bool"
            }
          ],
          "internalType": "struct NFTAuctionplace.AuctionToken[]",
          "name": "",
          "type": "tuple[]"
        }
      ],
      "stateMutability": "view",
      "type": "function"
    },
    {
      "inputs": [
        {
          "internalType": "address",
          "name": "owner",
          "type": "address"
        },
        {
          "internalType": "address",
          "name": "operator",
          "type": "address"
        }
      ],
      "name": "isApprovedForAll",
      "outputs": [
        {
          "internalType": "bool",
          "name": "",
          "type": "bool"
        }
      ],
      "stateMutability": "view",
      "type": "function"
    },
    {
      "inputs": [],
      "name": "name",
      "outputs": [
        {
          "internalType": "string",
          "name": "",
          "type": "string"
        }
      ],
      "stateMutability": "view",
      "type": "function"
    },
    {
      "inputs": [
        {
          "internalType": "uint256",
          "name": "tokenId",
          "type": "uint256"
        }
      ],
      "name": "ownerOf",
      "outputs": [
        {
          "internalType": "address",
          "name": "",
          "type": "address"
        }
      ],
      "stateMutability": "view",
      "type": "function"
    },
    {
      "inputs": [
        {
          "internalType": "address",
          "name": "from",
          "type": "address"
        },
        {
          "internalType": "address",
          "name": "to",
          "type": "address"
        },
        {
          "internalType": "uint256",
          "name": "tokenId",
          "type": "uint256"
        }
      ],
      "name": "safeTransferFrom",
      "outputs": [],
      "stateMutability": "nonpayable",
      "type": "function"
    },
    {
      "inputs": [
        {
          "internalType": "address",
          "name": "from",
          "type": "address"
        },
        {
          "internalType": "address",
          "name": "to",
          "type": "address"
        },
        {
          "internalType": "uint256",
          "name": "tokenId",
          "type": "uint256"
        },
        {
          "internalType": "bytes",
          "name": "data",
          "type": "bytes"
        }
      ],
      "name": "safeTransferFrom",
      "outputs": [],
      "stateMutability": "nonpayable",
      "type": "function"
    },
    {
      "inputs": [
        {
          "internalType": "address",
          "name": "operator",
          "type": "address"
        },
        {
          "internalType": "bool",
          "name": "approved",
          "type": "bool"
        }
      ],
      "name": "setApprovalForAll",
      "outputs": [],
      "stateMutability": "nonpayable",
      "type": "function"
    },
    {
      "inputs": [
        {
          "internalType": "bytes4",
          "name": "interfaceId",
          "type": "bytes4"
        }
      ],
      "name": "supportsInterface",
      "outputs": [
        {
          "internalType": "bool",
          "name": "",
          "type": "bool"
        }
      ],
      "stateMutability": "view",
      "type": "function"
    },
    {
      "inputs": [],
      "name": "symbol",
      "outputs": [
        {
          "internalType": "string",
          "name": "",
          "type": "string"
        }
      ],
      "stateMutability": "view",
      "type": "function"
    },
    {
      "inputs": [
        {
          "internalType": "uint256",
          "name": "tokenId",
          "type": "uint256"
        }
      ],
      "name": "tokenURI",
      "outputs": [
        {
          "internalType": "string",
          "name": "",
          "type": "string"
        }
      ],
      "stateMutability": "view",
      "type": "function"
    },
    {
      "inputs": [
        {
          "internalType": "address",
          "name": "from",
          "type": "address"
        },
        {
          "internalType": "address",
          "name": "to",
          "type": "address"
        },
        {
          "internalType": "uint256",
          "name": "tokenId",
          "type": "uint256"
        }
      ],
      "name": "transferFrom",
      "outputs": [],
      "stateMutability": "nonpayable",
      "type": "function"
    },
    {
      "inputs": [
        {
          "internalType": "uint256",
          "name": "_listPrice",
          "type": "uint256"
        }
      ],
      "name": "updateListPrice",
      "outputs": [],
      "stateMutability": "payable",
      "type": "function"
    }
  ],
  "bytecode": "0x6080604052662386f26fc100006009553480156200001c57600080fd5b50604080518082018252600f81526e4e465441756374696f6e706c61636560881b6020808301918252835180850190945260048452634e46544160e01b9084015281519192916200007091600091620000a1565b50805162000086906001906020840190620000a1565b5050600880546001600160a01b031916331790555062000184565b828054620000af9062000147565b90600052602060002090601f016020900481019282620000d357600085556200011e565b82601f10620000ee57805160ff19168380011785556200011e565b828001600101855582156200011e579182015b828111156200011e57825182559160200191906001019062000101565b506200012c92915062000130565b5090565b5b808211156200012c576000815560010162000131565b600181811c908216806200015c57607f821691505b602082108114156200017e57634e487b7160e01b600052602260045260246000fd5b50919050565b61265e80620001946000396000f3fe60806040526004361061012a5760003560e01c806370a08231116100ab578063c322579c1161006f578063c322579c14610329578063c87b56dd1461033c578063d4311a571461035c578063e985e9c514610371578063f7b14a3c146103ba578063fdca4ca3146103cd57600080fd5b806370a08231146102945780638d43480f146102b457806395d89b41146102d4578063a22cb465146102e9578063b88d4fde1461030957600080fd5b806323b872dd116100f257806323b872dd1461020257806342842e0e146102225780634b85d43b146102425780636352211e1461025557806368f1945f1461027557600080fd5b806301ffc9a71461012f57806302ee3a521461016457806306fdde0314610186578063081812fc146101a8578063095ea7b3146101e0575b600080fd5b34801561013b57600080fd5b5061014f61014a366004612231565b6103e2565b60405190151581526020015b60405180910390f35b34801561017057600080fd5b50610179610434565b60405161015b9190612387565b34801561019257600080fd5b5061019b6105a5565b60405161015b9190612444565b3480156101b457600080fd5b506101c86101c33660046122d7565b610637565b6040516001600160a01b03909116815260200161015b565b3480156101ec57600080fd5b506102006101fb366004612208565b61065e565b005b34801561020e57600080fd5b5061020061021d36600461211a565b610779565b34801561022e57600080fd5b5061020061023d36600461211a565b6107aa565b6102006102503660046122d7565b6107c5565b34801561026157600080fd5b506101c86102703660046122d7565b610a07565b34801561028157600080fd5b506009545b60405190815260200161015b565b3480156102a057600080fd5b506102866102af3660046120ce565b610a67565b3480156102c057600080fd5b506101796102cf3660046122d7565b610aed565b3480156102e057600080fd5b5061019b610d42565b3480156102f557600080fd5b506102006103043660046121ce565b610d51565b34801561031557600080fd5b50610200610324366004612155565b610d60565b6102006103373660046122d7565b610d98565b34801561034857600080fd5b5061019b6103573660046122d7565b610e03565b34801561036857600080fd5b50610179610f14565b34801561037d57600080fd5b5061014f61038c3660046120e8565b6001600160a01b03918216600090815260056020908152604080832093909416825291909152205460ff1690565b6102866103c8366004612269565b611112565b3480156103d957600080fd5b50610179611426565b60006001600160e01b031982166380ac58cd60e01b148061041357506001600160e01b03198216635b5e139f60e01b145b8061042e57506301ffc9a760e01b6001600160e01b03198316145b92915050565b6060600061044160075490565b905060008167ffffffffffffffff81111561046c57634e487b7160e01b600052604160045260246000fd5b6040519080825280602002602001820160405280156104a557816020015b610492611f3a565b81526020019060019003908161048a5790505b509050600080805b8481101561059b576104c08160016124f7565b6000818152600a60209081526040918290208251610120810184528154815260018201546001600160a01b039081169382019390935260028201548316938101939093526003810154909116606083015260048101546080830152600581015460a0830152600681015460c0830152600781015460e0830152600881015460ff16151561010083015286519294509186908690811061056f57634e487b7160e01b600052603260045260246000fd5b60209081029190910101526105856001856124f7565b9350508080610593906125a1565b9150506104ad565b5091949350505050565b6060600080546105b490612566565b80601f01602080910402602001604051908101604052809291908181526020018280546105e090612566565b801561062d5780601f106106025761010080835404028352916020019161062d565b820191906000526020600020905b81548152906001019060200180831161061057829003601f168201915b5050505050905090565b60006106428261168a565b506000908152600460205260409020546001600160a01b031690565b600061066982610a07565b9050806001600160a01b0316836001600160a01b031614156106dc5760405162461bcd60e51b815260206004820152602160248201527f4552433732313a20617070726f76616c20746f2063757272656e74206f776e656044820152603960f91b60648201526084015b60405180910390fd5b336001600160a01b03821614806106f857506106f8813361038c565b61076a5760405162461bcd60e51b815260206004820152603e60248201527f4552433732313a20617070726f76652063616c6c6572206973206e6f7420746f60448201527f6b656e206f776e6572206e6f7220617070726f76656420666f7220616c6c000060648201526084016106d3565b61077483836116ec565b505050565b610783338261175a565b61079f5760405162461bcd60e51b81526004016106d3906124a9565b6107748383836117d8565b61077483838360405180602001604052806000815250610d60565b6000818152600a6020526040902060048101546005820154600283015460038401546006850154600890950154939492936001600160a01b0392831693919092169160ff1642821180159061081c57506001811515145b156108bd576000878152600a6020526040902060088101805460ff1916905560010180546001600160a01b0319166001600160a01b0385161790556108623084896117d8565b61086c308861065e565b826001600160a01b0316846001600160a01b0316146108bd576040516001600160a01b0384169087156108fc029088906000818181858888f193505050501580156108bb573d6000803e3d6000fd5b505b5060016108ca85876124f7565b341015610941576040805162461bcd60e51b81526020600482015260248101919091527f426964206d7573742062652061746c656173742062696420496e6372656d656e60448201527f742067726561746572207468616e2063757272656e742062696420707269636560648201526084016106d3565b814210156109875760405162461bcd60e51b8152602060048201526013602482015272105d58dd1a5bdb881a185cc8195e1c1a5c9959606a1b60448201526064016106d3565b826001600160a01b0316846001600160a01b0316146109d8576040516001600160a01b0384169087156108fc029088906000818181858888f193505050501580156109d6573d6000803e3d6000fd5b505b50505060009384525050600a602052506040902034600482015560030180546001600160a01b03191633179055565b6000818152600260205260408120546001600160a01b03168061042e5760405162461bcd60e51b8152602060048201526018602482015277115490cdcc8c4e881a5b9d985b1a59081d1bdad95b88125160421b60448201526064016106d3565b60006001600160a01b038216610ad15760405162461bcd60e51b815260206004820152602960248201527f4552433732313a2061646472657373207a65726f206973206e6f7420612076616044820152683634b21037bbb732b960b91b60648201526084016106d3565b506001600160a01b031660009081526003602052604090205490565b60606000610afa60075490565b905060008080805b84811015610b8557600a6000610b198360016124f7565b815260208101919091526040016000206008015460ff1615156001148015610b60575086600a6000610b4c8460016124f7565b815260200190815260200160002060070154145b15610b7357610b706001856124f7565b93505b80610b7d816125a1565b915050610b02565b5060008367ffffffffffffffff811115610baf57634e487b7160e01b600052604160045260246000fd5b604051908082528060200260200182016040528015610be857816020015b610bd5611f3a565b815260200190600190039081610bcd5790505b50905060005b85811015610d3757600a6000610c058360016124f7565b815260208101919091526040016000206008015460ff1615156001148015610c4c575087600a6000610c388460016124f7565b815260200190815260200160002060070154145b15610d2557610c5c8160016124f7565b6000818152600a60209081526040918290208251610120810184528154815260018201546001600160a01b039081169382019390935260028201548316938101939093526003810154909116606083015260048101546080830152600581015460a0830152600681015460c0830152600781015460e0830152600881015460ff161515610100830152845192955091849087908110610d0b57634e487b7160e01b600052603260045260246000fd5b6020908102919091010152610d216001866124f7565b9450505b80610d2f816125a1565b915050610bee565b509695505050505050565b6060600180546105b490612566565b610d5c338383611974565b5050565b610d6a338361175a565b610d865760405162461bcd60e51b81526004016106d3906124a9565b610d9284848484611a43565b50505050565b6008546001600160a01b03163314610dfe5760405162461bcd60e51b815260206004820152602360248201527f4f6e6c79206f776e65722063616e20757064617465206c697374696e6720707260448201526269636560e81b60648201526084016106d3565b600955565b6060610e0e8261168a565b60008281526006602052604081208054610e2790612566565b80601f0160208091040260200160405190810160405280929190818152602001828054610e5390612566565b8015610ea05780601f10610e7557610100808354040283529160200191610ea0565b820191906000526020600020905b815481529060010190602001808311610e8357829003601f168201915b505050505090506000610ebe60408051602081019091526000815290565b9050805160001415610ed1575092915050565b815115610f03578082604051602001610eeb92919061231b565b60405160208183030381529060405292505050919050565b610f0c84611a76565b949350505050565b60606000610f2160075490565b905060008080805b84811015610f8157600a6000610f408360016124f7565b815260208101919091526040016000206008015460ff16151560011415610f6f57610f6c6001856124f7565b93505b80610f79816125a1565b915050610f29565b5060008367ffffffffffffffff811115610fab57634e487b7160e01b600052604160045260246000fd5b604051908082528060200260200182016040528015610fe457816020015b610fd1611f3a565b815260200190600190039081610fc95790505b50905060005b8581101561110857600a60006110018360016124f7565b815260208101919091526040016000206008015460ff161515600114156110f65761102d8160016124f7565b6000818152600a60209081526040918290208251610120810184528154815260018201546001600160a01b039081169382019390935260028201548316938101939093526003810154909116606083015260048101546080830152600581015460a0830152600681015460c0830152600781015460e0830152600881015460ff1615156101008301528451929550918490879081106110dc57634e487b7160e01b600052603260045260246000fd5b60209081029190910101526110f26001866124f7565b9450505b80611100816125a1565b915050610fea565b5095945050505050565b600060095434146111655760405162461bcd60e51b815260206004820152601760248201527f4d7573742073656e64206c697374696e6720707269636500000000000000000060448201526064016106d3565b6611c37937e0800085116111d95760405162461bcd60e51b815260206004820152603560248201527f4d75737420736574207072696365206f662061756374696f6e206974656d20676044820152740e4cac2e8cae440e8d0c2dc40605c60606a408aa89605b1b60648201526084016106d3565b600f831161123d5760405162461bcd60e51b815260206004820152602b60248201527f4d75737420736574206475726174696f6e206f662061756374696f6e2067726560448201526a061746572207468616e20360ac1b60648201526084016106d3565b61124b600780546001019055565b600061125660075490565b90506112623382611aea565b61126c8188611b04565b60408051610120810182528281523060208201523391810182905260608101919091526080810187905260a0810186905260c081016112ab86426124f7565b81526020808201869052600160409283018190526000858152600a8352838120855181559285015191830180546001600160a01b03199081166001600160a01b039485161790915585850151600285018054831691851691909117905560608601516003850180549092169084161790556080850151600484015560a0850151600584015560c0850151600684015560e08501516007840155610100909401516008928301805460ff1916911515919091179055905460095492519116926108fc831502929190818181858888f1935050505015801561138f573d6000803e3d6000fd5b5061139b3330836117d8565b807f6d7ab49978c12b61acf6ef87064e2bea09533ef82465e5469c61a7b0c1a65be43033808a8a6113cc8b426124f7565b604080516001600160a01b039788168152958716602087015293909516928401929092526060830152608082015260a081019190915260c08101869052600160e08201526101000160405180910390a29695505050505050565b6060600061143360075490565b905060008080805b848110156114cb5733600a60006114538460016124f7565b81526020810191909152604001600020600101546001600160a01b031614806114a6575033600a60006114878460016124f7565b81526020810191909152604001600020600201546001600160a01b0316145b156114b9576114b66001856124f7565b93505b806114c3816125a1565b91505061143b565b5060008367ffffffffffffffff8111156114f557634e487b7160e01b600052604160045260246000fd5b60405190808252806020026020018201604052801561152e57816020015b61151b611f3a565b8152602001906001900390816115135790505b50905060005b858110156111085733600a600061154c8460016124f7565b81526020810191909152604001600020600101546001600160a01b0316148061159f575033600a60006115808460016124f7565b81526020810191909152604001600020600201546001600160a01b0316145b15611678576115af8160016124f7565b6000818152600a60209081526040918290208251610120810184528154815260018201546001600160a01b039081169382019390935260028201548316938101939093526003810154909116606083015260048101546080830152600581015460a0830152600681015460c0830152600781015460e0830152600881015460ff16151561010083015284519295509184908790811061165e57634e487b7160e01b600052603260045260246000fd5b60209081029190910101526116746001866124f7565b9450505b80611682816125a1565b915050611534565b6000818152600260205260409020546001600160a01b03166116e95760405162461bcd60e51b8152602060048201526018602482015277115490cdcc8c4e881a5b9d985b1a59081d1bdad95b88125160421b60448201526064016106d3565b50565b600081815260046020526040902080546001600160a01b0319166001600160a01b038416908117909155819061172182610a07565b6001600160a01b03167f8c5be1e5ebec7d5bd14f71427d1e84f3dd0314c0f7b2291e5b200ac8c7c3b92560405160405180910390a45050565b60008061176683610a07565b9050806001600160a01b0316846001600160a01b031614806117ad57506001600160a01b0380821660009081526005602090815260408083209388168352929052205460ff165b80610f0c5750836001600160a01b03166117c684610637565b6001600160a01b031614949350505050565b826001600160a01b03166117eb82610a07565b6001600160a01b03161461184f5760405162461bcd60e51b815260206004820152602560248201527f4552433732313a207472616e736665722066726f6d20696e636f72726563742060448201526437bbb732b960d91b60648201526084016106d3565b6001600160a01b0382166118b15760405162461bcd60e51b8152602060048201526024808201527f4552433732313a207472616e7366657220746f20746865207a65726f206164646044820152637265737360e01b60648201526084016106d3565b6118bc6000826116ec565b6001600160a01b03831660009081526003602052604081208054600192906118e5908490612523565b90915550506001600160a01b03821660009081526003602052604081208054600192906119139084906124f7565b909155505060008181526002602052604080822080546001600160a01b0319166001600160a01b0386811691821790925591518493918716917fddf252ad1be2c89b69c2b068fc378daa952ba7f163c4a11628f55a4df523b3ef91a4505050565b816001600160a01b0316836001600160a01b031614156119d65760405162461bcd60e51b815260206004820152601960248201527f4552433732313a20617070726f766520746f2063616c6c65720000000000000060448201526064016106d3565b6001600160a01b03838116600081815260056020908152604080832094871680845294825291829020805460ff191686151590811790915591519182527f17307eab39ab6107e8899845ad3d59bd9653f200f220920489ca2b5937696c31910160405180910390a3505050565b611a4e8484846117d8565b611a5a84848484611b9e565b610d925760405162461bcd60e51b81526004016106d390612457565b6060611a818261168a565b6000611a9860408051602081019091526000815290565b90506000815111611ab85760405180602001604052806000815250611ae3565b80611ac284611cab565b604051602001611ad392919061231b565b6040516020818303038152906040525b9392505050565b610d5c828260405180602001604052806000815250611dc5565b6000828152600260205260409020546001600160a01b0316611b7f5760405162461bcd60e51b815260206004820152602e60248201527f45524337323155524953746f726167653a2055524920736574206f66206e6f6e60448201526d32bc34b9ba32b73a103a37b5b2b760911b60648201526084016106d3565b6000828152600660209081526040909120825161077492840190611fa3565b60006001600160a01b0384163b15611ca057604051630a85bd0160e11b81526001600160a01b0385169063150b7a0290611be290339089908890889060040161234a565b602060405180830381600087803b158015611bfc57600080fd5b505af1925050508015611c2c575060408051601f3d908101601f19168201909252611c299181019061224d565b60015b611c86573d808015611c5a576040519150601f19603f3d011682016040523d82523d6000602084013e611c5f565b606091505b508051611c7e5760405162461bcd60e51b81526004016106d390612457565b805181602001fd5b6001600160e01b031916630a85bd0160e11b149050610f0c565b506001949350505050565b606081611ccf5750506040805180820190915260018152600360fc1b602082015290565b8160005b8115611cf95780611ce3816125a1565b9150611cf29050600a8361250f565b9150611cd3565b60008167ffffffffffffffff811115611d2257634e487b7160e01b600052604160045260246000fd5b6040519080825280601f01601f191660200182016040528015611d4c576020820181803683370190505b5090505b8415610f0c57611d61600183612523565b9150611d6e600a866125bc565b611d799060306124f7565b60f81b818381518110611d9c57634e487b7160e01b600052603260045260246000fd5b60200101906001600160f81b031916908160001a905350611dbe600a8661250f565b9450611d50565b611dcf8383611df8565b611ddc6000848484611b9e565b6107745760405162461bcd60e51b81526004016106d390612457565b6001600160a01b038216611e4e5760405162461bcd60e51b815260206004820181905260248201527f4552433732313a206d696e7420746f20746865207a65726f206164647265737360448201526064016106d3565b6000818152600260205260409020546001600160a01b031615611eb35760405162461bcd60e51b815260206004820152601c60248201527f4552433732313a20746f6b656e20616c7265616479206d696e7465640000000060448201526064016106d3565b6001600160a01b0382166000908152600360205260408120805460019290611edc9084906124f7565b909155505060008181526002602052604080822080546001600160a01b0319166001600160a01b03861690811790915590518392907fddf252ad1be2c89b69c2b068fc378daa952ba7f163c4a11628f55a4df523b3ef908290a45050565b6040518061012001604052806000815260200160006001600160a01b0316815260200160006001600160a01b0316815260200160006001600160a01b03168152602001600081526020016000815260200160008152602001600081526020016000151581525090565b828054611faf90612566565b90600052602060002090601f016020900481019282611fd15760008555612017565b82601f10611fea57805160ff1916838001178555612017565b82800160010185558215612017579182015b82811115612017578251825591602001919060010190611ffc565b50612023929150612027565b5090565b5b808211156120235760008155600101612028565b600067ffffffffffffffff80841115612057576120576125fc565b604051601f8501601f19908116603f0116810190828211818310171561207f5761207f6125fc565b8160405280935085815286868601111561209857600080fd5b858560208301376000602087830101525050509392505050565b80356001600160a01b03811681146120c957600080fd5b919050565b6000602082840312156120df578081fd5b611ae3826120b2565b600080604083850312156120fa578081fd5b612103836120b2565b9150612111602084016120b2565b90509250929050565b60008060006060848603121561212e578081fd5b612137846120b2565b9250612145602085016120b2565b9150604084013590509250925092565b6000806000806080858703121561216a578081fd5b612173856120b2565b9350612181602086016120b2565b925060408501359150606085013567ffffffffffffffff8111156121a3578182fd5b8501601f810187136121b3578182fd5b6121c28782356020840161203c565b91505092959194509250565b600080604083850312156121e0578182fd5b6121e9836120b2565b9150602083013580151581146121fd578182fd5b809150509250929050565b6000806040838503121561221a578182fd5b612223836120b2565b946020939093013593505050565b600060208284031215612242578081fd5b8135611ae381612612565b60006020828403121561225e578081fd5b8151611ae381612612565b600080600080600060a08688031215612280578081fd5b853567ffffffffffffffff811115612296578182fd5b8601601f810188136122a6578182fd5b6122b58882356020840161203c565b9860208801359850604088013597606081013597506080013595509350505050565b6000602082840312156122e8578081fd5b5035919050565b6000815180845261230781602086016020860161253a565b601f01601f19169290920160200192915050565b6000835161232d81846020880161253a565b83519083019061234181836020880161253a565b01949350505050565b6001600160a01b038581168252841660208201526040810183905260806060820181905260009061237d908301846122ef565b9695505050505050565b602080825282518282018190526000919060409081850190868401855b8281101561243757815180518552868101516001600160a01b031687860152858101516123db878701826001600160a01b03169052565b506060818101516001600160a01b0316908601526080808201519086015260a0808201519086015260c0808201519086015260e080820151908601526101009081015115159085015261012090930192908501906001016123a4565b5091979650505050505050565b602081526000611ae360208301846122ef565b60208082526032908201527f4552433732313a207472616e7366657220746f206e6f6e20455243373231526560408201527131b2b4bb32b91034b6b83632b6b2b73a32b960711b606082015260800190565b6020808252602e908201527f4552433732313a2063616c6c6572206973206e6f7420746f6b656e206f776e6560408201526d1c881b9bdc88185c1c1c9bdd995960921b606082015260800190565b6000821982111561250a5761250a6125d0565b500190565b60008261251e5761251e6125e6565b500490565b600082821015612535576125356125d0565b500390565b60005b8381101561255557818101518382015260200161253d565b83811115610d925750506000910152565b600181811c9082168061257a57607f821691505b6020821081141561259b57634e487b7160e01b600052602260045260246000fd5b50919050565b60006000198214156125b5576125b56125d0565b5060010190565b6000826125cb576125cb6125e6565b500690565b634e487b7160e01b600052601160045260246000fd5b634e487b7160e01b600052601260045260246000fd5b634e487b7160e01b600052604160045260246000fd5b6001600160e01b0319811681146116e957600080fdfea26469706673582212208f73cf35407aac7902f73d40b8964126b0141dfe8e31e4351aeb80ab4f73baa164736f6c63430008040033",
  "linkReferences": {},
  "deployedLinkReferences": {}
}